Archive member included because of file (symbol)

/Users/gregpace/Desktop/CMPE_FP/gcc-arm-none-eabi-4_8-2014q2/bin/../lib/gcc/arm-none-eabi/4.8.4/armv6-m/libgcc.a(_udivsi3.o)
                              ./Source/app_common/pstorage.o (__aeabi_uidiv)
/Users/gregpace/Desktop/CMPE_FP/gcc-arm-none-eabi-4_8-2014q2/bin/../lib/gcc/arm-none-eabi/4.8.4/armv6-m/libgcc.a(_divsi3.o)
                              ./Application/main.o (__aeabi_idiv)
/Users/gregpace/Desktop/CMPE_FP/gcc-arm-none-eabi-4_8-2014q2/bin/../lib/gcc/arm-none-eabi/4.8.4/armv6-m/libgcc.a(_dvmd_tls.o)
                              /Users/gregpace/Desktop/CMPE_FP/gcc-arm-none-eabi-4_8-2014q2/bin/../lib/gcc/arm-none-eabi/4.8.4/armv6-m/libgcc.a(_udivsi3.o) (__aeabi_idiv0)
/Users/gregpace/Desktop/CMPE_FP/gcc-arm-none-eabi-4_8-2014q2/bin/../lib/gcc/arm-none-eabi/4.8.4/../../../../arm-none-eabi/lib/armv6-m/libg.a(lib_a-exit.o)
                              /Users/gregpace/Desktop/CMPE_FP/gcc-arm-none-eabi-4_8-2014q2/bin/../lib/gcc/arm-none-eabi/4.8.4/../../../../arm-none-eabi/lib/armv6-m/crt0.o (exit)
/Users/gregpace/Desktop/CMPE_FP/gcc-arm-none-eabi-4_8-2014q2/bin/../lib/gcc/arm-none-eabi/4.8.4/../../../../arm-none-eabi/lib/armv6-m/libg.a(lib_a-impure.o)
                              /Users/gregpace/Desktop/CMPE_FP/gcc-arm-none-eabi-4_8-2014q2/bin/../lib/gcc/arm-none-eabi/4.8.4/../../../../arm-none-eabi/lib/armv6-m/libg.a(lib_a-exit.o) (_global_impure_ptr)
/Users/gregpace/Desktop/CMPE_FP/gcc-arm-none-eabi-4_8-2014q2/bin/../lib/gcc/arm-none-eabi/4.8.4/../../../../arm-none-eabi/lib/armv6-m/libg.a(lib_a-init.o)
                              /Users/gregpace/Desktop/CMPE_FP/gcc-arm-none-eabi-4_8-2014q2/bin/../lib/gcc/arm-none-eabi/4.8.4/../../../../arm-none-eabi/lib/armv6-m/crt0.o (__libc_init_array)
/Users/gregpace/Desktop/CMPE_FP/gcc-arm-none-eabi-4_8-2014q2/bin/../lib/gcc/arm-none-eabi/4.8.4/../../../../arm-none-eabi/lib/armv6-m/libg.a(lib_a-memcmp.o)
                              ./Source/ble/ble_bondmngr.o (memcmp)
/Users/gregpace/Desktop/CMPE_FP/gcc-arm-none-eabi-4_8-2014q2/bin/../lib/gcc/arm-none-eabi/4.8.4/../../../../arm-none-eabi/lib/armv6-m/libg.a(lib_a-memcpy-stub.o)
                              ./Source/ble/ble_advdata.o (memcpy)
/Users/gregpace/Desktop/CMPE_FP/gcc-arm-none-eabi-4_8-2014q2/bin/../lib/gcc/arm-none-eabi/4.8.4/../../../../arm-none-eabi/lib/armv6-m/libg.a(lib_a-memset.o)
                              /Users/gregpace/Desktop/CMPE_FP/gcc-arm-none-eabi-4_8-2014q2/bin/../lib/gcc/arm-none-eabi/4.8.4/../../../../arm-none-eabi/lib/armv6-m/crt0.o (memset)
/Users/gregpace/Desktop/CMPE_FP/gcc-arm-none-eabi-4_8-2014q2/bin/../lib/gcc/arm-none-eabi/4.8.4/../../../../arm-none-eabi/lib/armv6-m/libg.a(lib_a-strlen.o)
                              ./Source/ble/ble_services/ble_srv_common.o (strlen)
/Users/gregpace/Desktop/CMPE_FP/gcc-arm-none-eabi-4_8-2014q2/bin/../lib/gcc/arm-none-eabi/4.8.4/../../../../arm-none-eabi/lib/armv6-m/libg.a(lib_a-strncpy.o)
                              ./Source/ble/ble_debug_assert_handler.o (strncpy)
/Users/gregpace/Desktop/CMPE_FP/gcc-arm-none-eabi-4_8-2014q2/bin/../lib/gcc/arm-none-eabi/4.8.4/../../../../arm-none-eabi/lib/armv6-m/libg.a(lib_a-__call_atexit.o)
                              /Users/gregpace/Desktop/CMPE_FP/gcc-arm-none-eabi-4_8-2014q2/bin/../lib/gcc/arm-none-eabi/4.8.4/../../../../arm-none-eabi/lib/armv6-m/libg.a(lib_a-exit.o) (__call_exitprocs)
/Users/gregpace/Desktop/CMPE_FP/gcc-arm-none-eabi-4_8-2014q2/bin/../lib/gcc/arm-none-eabi/4.8.4/../../../../arm-none-eabi/lib/armv6-m/libg.a(lib_a-atexit.o)
                              /Users/gregpace/Desktop/CMPE_FP/gcc-arm-none-eabi-4_8-2014q2/bin/../lib/gcc/arm-none-eabi/4.8.4/../../../../arm-none-eabi/lib/armv6-m/libg.a(lib_a-__call_atexit.o) (atexit)
/Users/gregpace/Desktop/CMPE_FP/gcc-arm-none-eabi-4_8-2014q2/bin/../lib/gcc/arm-none-eabi/4.8.4/../../../../arm-none-eabi/lib/armv6-m/libg.a(lib_a-fini.o)
                              /Users/gregpace/Desktop/CMPE_FP/gcc-arm-none-eabi-4_8-2014q2/bin/../lib/gcc/arm-none-eabi/4.8.4/../../../../arm-none-eabi/lib/armv6-m/libg.a(lib_a-__call_atexit.o) (__libc_fini_array)
/Users/gregpace/Desktop/CMPE_FP/gcc-arm-none-eabi-4_8-2014q2/bin/../lib/gcc/arm-none-eabi/4.8.4/../../../../arm-none-eabi/lib/armv6-m/libg.a(lib_a-__atexit.o)
                              /Users/gregpace/Desktop/CMPE_FP/gcc-arm-none-eabi-4_8-2014q2/bin/../lib/gcc/arm-none-eabi/4.8.4/../../../../arm-none-eabi/lib/armv6-m/libg.a(lib_a-atexit.o) (__register_exitproc)
/Users/gregpace/Desktop/CMPE_FP/gcc-arm-none-eabi-4_8-2014q2/bin/../lib/gcc/arm-none-eabi/4.8.4/../../../../arm-none-eabi/lib/armv6-m/libnosys.a(_exit.o)
                              /Users/gregpace/Desktop/CMPE_FP/gcc-arm-none-eabi-4_8-2014q2/bin/../lib/gcc/arm-none-eabi/4.8.4/../../../../arm-none-eabi/lib/armv6-m/libg.a(lib_a-exit.o) (_exit)

Allocating common symbols
Common symbol       size              file

pwm_pin             0x1               ./Application/drivers/source/pwm.o

Discarded input sections

 .group         0x0000000000000000        0x8 ./_build/startup/system_nrf51.o
 .group         0x0000000000000000        0x8 ./_build/startup/system_nrf51.o
 .group         0x0000000000000000        0x8 ./_build/startup/system_nrf51.o
 .group         0x0000000000000000        0x8 ./_build/startup/system_nrf51.o
 .group         0x0000000000000000        0x8 ./_build/startup/system_nrf51.o
 .group         0x0000000000000000        0x8 ./_build/startup/system_nrf51.o
 .group         0x0000000000000000        0x8 ./_build/startup/system_nrf51.o
 .group         0x0000000000000000        0x8 ./_build/startup/system_nrf51.o
 .group         0x0000000000000000        0x8 ./_build/startup/system_nrf51.o
 .group         0x0000000000000000        0x8 ./_build/startup/system_nrf51.o
 .group         0x0000000000000000        0x8 ./_build/startup/system_nrf51.o
 .group         0x0000000000000000        0x8 ./_build/startup/system_nrf51.o
 .group         0x0000000000000000        0x8 ./_build/startup/system_nrf51.o
 .group         0x0000000000000000        0x8 ./Source/sd_common/softdevice_handler.o
 .group         0x0000000000000000        0x8 ./Source/sd_common/softdevice_handler.o
 .group         0x0000000000000000        0x8 ./Source/sd_common/softdevice_handler.o
 .group         0x0000000000000000        0x8 ./Source/sd_common/softdevice_handler.o
 .group         0x0000000000000000        0x8 ./Source/sd_common/softdevice_handler.o
Memory Configuration

Name             Origin             Length             Attributes
FLASH            0x0000000000014000 0x000000000002c000 xr
RAM              0x0000000020002000 0x0000000000002000 xrw
*default*        0x0000000000000000 0xffffffffffffffff

Linker script and memory map

LOAD /Users/gregpace/Desktop/CMPE_FP/gcc-arm-none-eabi-4_8-2014q2/bin/../lib/gcc/arm-none-eabi/4.8.4/armv6-m/crti.o
LOAD /Users/gregpace/Desktop/CMPE_FP/gcc-arm-none-eabi-4_8-2014q2/bin/../lib/gcc/arm-none-eabi/4.8.4/armv6-m/crtbegin.o
LOAD /Users/gregpace/Desktop/CMPE_FP/gcc-arm-none-eabi-4_8-2014q2/bin/../lib/gcc/arm-none-eabi/4.8.4/../../../../arm-none-eabi/lib/armv6-m/crt0.o
LOAD ./_build/startup/gcc_startup_nrf51.o
LOAD ./_build/startup/system_nrf51.o
LOAD ./Source/sd_common/softdevice_handler.o
LOAD ./Source/ble/ble_services/ble_bas.o
LOAD ./Source/ble/ble_services/ble_ias.o
LOAD ./Source/ble/ble_services/ble_ias_c.o
LOAD ./Source/ble/ble_services/ble_lls.o
LOAD ./Source/ble/ble_services/ble_srv_common.o
LOAD ./Source/ble/ble_services/ble_tps.o
LOAD ./Source/ble/ble_advdata.o
LOAD ./Source/ble/ble_advdata_parser.o
LOAD ./Source/ble/ble_bondmngr.o
LOAD ./Source/ble/ble_conn_params.o
LOAD ./Source/ble/ble_debug_assert_handler.o
LOAD ./Source/ble/ble_dtm.o
LOAD ./Source/ble/ble_error_log.o
LOAD ./Source/ble/ble_flash.o
LOAD ./Source/ble/ble_racp.o
LOAD ./Source/ble/ble_radio_notification.o
LOAD ./Source/ble/ble_sensorsim.o
LOAD ./Source/app_common/app_button.o
LOAD ./Source/app_common/app_gpiote.o
LOAD ./Source/app_common/app_timer.o
LOAD ./Source/app_common/crc16.o
LOAD ./Source/app_common/pstorage.o
LOAD ./Application/external_peripherals/source/accel_lis3dh.o
LOAD ./Application/drivers/source/pwm.o
LOAD ./Application/drivers/source/spi_bang.o
LOAD ./Application/main.o
START GROUP
LOAD /Users/gregpace/Desktop/CMPE_FP/gcc-arm-none-eabi-4_8-2014q2/bin/../lib/gcc/arm-none-eabi/4.8.4/armv6-m/libgcc.a
LOAD /Users/gregpace/Desktop/CMPE_FP/gcc-arm-none-eabi-4_8-2014q2/bin/../lib/gcc/arm-none-eabi/4.8.4/../../../../arm-none-eabi/lib/armv6-m/libg.a
LOAD /Users/gregpace/Desktop/CMPE_FP/gcc-arm-none-eabi-4_8-2014q2/bin/../lib/gcc/arm-none-eabi/4.8.4/../../../../arm-none-eabi/lib/armv6-m/libc.a
END GROUP
LOAD /Users/gregpace/Desktop/CMPE_FP/gcc-arm-none-eabi-4_8-2014q2/bin/../lib/gcc/arm-none-eabi/4.8.4/armv6-m/crtend.o
LOAD /Users/gregpace/Desktop/CMPE_FP/gcc-arm-none-eabi-4_8-2014q2/bin/../lib/gcc/arm-none-eabi/4.8.4/armv6-m/crtn.o
START GROUP
LOAD /Users/gregpace/Desktop/CMPE_FP/gcc-arm-none-eabi-4_8-2014q2/bin/../lib/gcc/arm-none-eabi/4.8.4/armv6-m/libgcc.a
LOAD /Users/gregpace/Desktop/CMPE_FP/gcc-arm-none-eabi-4_8-2014q2/bin/../lib/gcc/arm-none-eabi/4.8.4/../../../../arm-none-eabi/lib/armv6-m/libc.a
LOAD /Users/gregpace/Desktop/CMPE_FP/gcc-arm-none-eabi-4_8-2014q2/bin/../lib/gcc/arm-none-eabi/4.8.4/../../../../arm-none-eabi/lib/armv6-m/libnosys.a
END GROUP

.text           0x0000000000014000     0xccbc
 *(.Vectors)
 .Vectors       0x0000000000014000       0xc0 ./_build/startup/gcc_startup_nrf51.o
                0x0000000000014000                __Vectors
 *(.text*)
 .text          0x00000000000140c0        0x0 /Users/gregpace/Desktop/CMPE_FP/gcc-arm-none-eabi-4_8-2014q2/bin/../lib/gcc/arm-none-eabi/4.8.4/armv6-m/crti.o
 .text          0x00000000000140c0       0x60 /Users/gregpace/Desktop/CMPE_FP/gcc-arm-none-eabi-4_8-2014q2/bin/../lib/gcc/arm-none-eabi/4.8.4/armv6-m/crtbegin.o
 .text          0x0000000000014120       0x78 /Users/gregpace/Desktop/CMPE_FP/gcc-arm-none-eabi-4_8-2014q2/bin/../lib/gcc/arm-none-eabi/4.8.4/../../../../arm-none-eabi/lib/armv6-m/crt0.o
                0x0000000000014120                _mainCRTStartup
                0x0000000000014120                _start
 .text          0x0000000000014198       0x48 ./_build/startup/gcc_startup_nrf51.o
                0x0000000000014198                Reset_Handler
                0x00000000000141d4                NMI_Handler
                0x00000000000141d6                HardFault_Handler
                0x00000000000141d8                SVC_Handler
                0x00000000000141da                PendSV_Handler
                0x00000000000141dc                SysTick_Handler
                0x00000000000141de                SWI4_IRQHandler
                0x00000000000141de                TEMP_IRQHandler
                0x00000000000141de                QDEC_IRQHandler
                0x00000000000141de                UART0_IRQHandler
                0x00000000000141de                SWI5_IRQHandler
                0x00000000000141de                TIMER0_IRQHandler
                0x00000000000141de                TIMER1_IRQHandler
                0x00000000000141de                ECB_IRQHandler
                0x00000000000141de                Default_Handler
                0x00000000000141de                SWI3_IRQHandler
                0x00000000000141de                CCM_AAR_IRQHandler
                0x00000000000141de                WDT_IRQHandler
                0x00000000000141de                RNG_IRQHandler
                0x00000000000141de                TIMER2_IRQHandler
                0x00000000000141de                SPI1_TWI1_IRQHandler
                0x00000000000141de                SPI0_TWI0_IRQHandler
                0x00000000000141de                RTC0_IRQHandler
                0x00000000000141de                POWER_CLOCK_IRQHandler
                0x00000000000141de                RADIO_IRQHandler
                0x00000000000141de                LPCOMP_IRQHandler
 .text          0x00000000000141e0      0x128 ./_build/startup/system_nrf51.o
                0x00000000000141e0                SystemCoreClockUpdate
                0x00000000000141f8                SystemInit
 .text          0x0000000000014308      0x5e0 ./Source/sd_common/softdevice_handler.o
                0x000000000001465c                softdevice_assertion_handler
                0x0000000000014684                intern_softdevice_events_execute
                0x0000000000014798                softdevice_handler_init
                0x0000000000014824                softdevice_handler_sd_disable
                0x000000000001484c                softdevice_ble_evt_handler_set
                0x0000000000014874                softdevice_sys_evt_handler_set
                0x000000000001489c                SWI2_IRQHandler
 .text          0x00000000000148e8      0x6d8 ./Source/ble/ble_services/ble_bas.o
                0x0000000000014b74                ble_bas_on_ble_evt
                0x0000000000014e80                ble_bas_init
                0x0000000000014ef4                ble_bas_battery_level_update
 .text          0x0000000000014fc0      0x3e4 ./Source/ble/ble_services/ble_ias.o
                0x00000000000151a4                ble_ias_on_ble_evt
                0x0000000000015310                ble_ias_init
                0x0000000000015374                ble_ias_alert_level_get
 .text          0x00000000000153a4      0x4f8 ./Source/ble/ble_services/ble_ias_c.o
                0x0000000000015558                ble_ias_c_init
                0x000000000001575c                ble_ias_c_on_ble_evt
                0x0000000000015858                ble_ias_c_send_alert_level
 .text          0x000000000001589c      0x484 ./Source/ble/ble_services/ble_lls.o
                0x0000000000015b08                ble_lls_on_ble_evt
                0x0000000000015c80                ble_lls_init
                0x0000000000015cf0                ble_lls_alert_level_get
 .text          0x0000000000015d20      0x154 ./Source/ble/ble_services/ble_srv_common.o
                0x0000000000015dc8                ble_srv_report_ref_encode
                0x0000000000015e4c                ble_srv_ascii_to_utf8
 .text          0x0000000000015e74      0x338 ./Source/ble/ble_services/ble_tps.o
                0x0000000000016124                ble_tps_init
                0x0000000000016178                ble_tps_tx_power_level_set
 .text          0x00000000000161ac      0xc38 ./Source/ble/ble_advdata.o
                0x0000000000016d18                ble_advdata_set
 .text          0x0000000000016de4      0x224 ./Source/ble/ble_advdata_parser.o
                0x0000000000016f7c                ble_advdata_parser_field_find
 .text          0x0000000000017008     0x1980 ./Source/ble/ble_bondmngr.o
                0x00000000000180bc                ble_bondmngr_on_ble_evt
                0x0000000000018150                ble_bondmngr_bonded_centrals_store
                0x00000000000182e8                ble_bondmngr_sys_attr_store
                0x0000000000018378                ble_bondmngr_bonded_centrals_delete
                0x00000000000183d0                ble_bondmngr_central_addr_get
                0x0000000000018450                ble_bondmngr_whitelist_get
                0x0000000000018534                ble_bondmngr_init
                0x0000000000018694                ble_bondmngr_central_ids_get
                0x0000000000018724                ble_bondmngr_bonded_central_delete
                0x0000000000018948                ble_bondmngr_is_link_encrypted
 .text          0x0000000000018988      0x698 ./Source/ble/ble_conn_params.o
                0x0000000000018c70                ble_conn_params_init
                0x0000000000018d1c                ble_conn_params_stop
                0x0000000000018f2c                ble_conn_params_on_ble_evt
                0x0000000000018f7c                ble_conn_params_change_conn_params
 .text          0x0000000000019020       0x48 ./Source/ble/ble_debug_assert_handler.o
                0x0000000000019020                ble_debug_assert_handler
 .text          0x0000000000019068      0x900 ./Source/ble/ble_dtm.o
                0x0000000000019560                dtm_init
                0x00000000000195a8                dtm_wait
                0x000000000001968c                dtm_cmd
                0x0000000000019858                dtm_event_get
                0x0000000000019890                dtm_set_txpower
                0x00000000000198f0                dtm_set_timer
 .text          0x0000000000019968       0xa8 ./Source/ble/ble_error_log.o
                0x00000000000199bc                ble_error_log_write
 .text          0x0000000000019a10      0x624 ./Source/ble/ble_flash.o
                0x0000000000019b90                ble_flash_crc16_compute
                0x0000000000019da4                ble_flash_word_write
                0x0000000000019dc4                ble_flash_block_write
                0x0000000000019e20                ble_flash_page_erase
                0x0000000000019e50                ble_flash_page_write
                0x0000000000019f30                ble_flash_page_read
                0x0000000000019fe8                ble_flash_page_addr
                0x000000000001a014                ble_flash_on_radio_active_evt
 .text          0x000000000001a034      0x298 ./Source/ble/ble_racp.o
                0x000000000001a1cc                ble_racp_decode
                0x000000000001a240                ble_racp_encode
 .text          0x000000000001a2cc      0x238 ./Source/ble/ble_radio_notification.o
                0x000000000001a44c                SWI1_IRQHandler
                0x000000000001a48c                ble_radio_notification_init
 .text          0x000000000001a504       0xb8 ./Source/ble/ble_sensorsim.o
                0x000000000001a504                ble_sensorsim_init
                0x000000000001a53c                ble_sensorsim_measure
 .text          0x000000000001a5bc      0x3e4 ./Source/app_common/app_button.o
                0x000000000001a7ac                app_button_init
                0x000000000001a884                app_button_enable
                0x000000000001a8b0                app_button_disable
                0x000000000001a8fc                app_button_is_pushed
 .text          0x000000000001a9a0      0x760 ./Source/app_common/app_gpiote.o
                0x000000000001aba8                GPIOTE_IRQHandler
                0x000000000001ad60                app_gpiote_init
                0x000000000001ae04                app_gpiote_user_register
                0x000000000001aecc                app_gpiote_user_enable
                0x000000000001b024                app_gpiote_user_disable
                0x000000000001b09c                app_gpiote_pins_state_get
 .text          0x000000000001b100     0x138c ./Source/app_common/app_timer.o
                0x000000000001c07c                RTC1_IRQHandler
                0x000000000001c0c8                SWI0_IRQHandler
                0x000000000001c0d4                app_timer_init
                0x000000000001c244                app_timer_create
                0x000000000001c334                app_timer_start
                0x000000000001c3c0                app_timer_stop
                0x000000000001c420                app_timer_stop_all
                0x000000000001c448                app_timer_cnt_get
                0x000000000001c464                app_timer_cnt_diff_compute
 .text          0x000000000001c48c       0xd4 ./Source/app_common/crc16.o
                0x000000000001c48c                crc16_compute
 .text          0x000000000001c560     0x13f8 ./Source/app_common/pstorage.o
                0x000000000001c9d0                pstorage_sys_event_handler
                0x000000000001d088                pstorage_init
                0x000000000001d1b0                pstorage_register
                0x000000000001d37c                pstorage_block_identifier_get
                0x000000000001d45c                pstorage_store
                0x000000000001d59c                pstorage_update
                0x000000000001d6dc                pstorage_load
                0x000000000001d824                pstorage_clear
                0x000000000001d918                pstorage_access_status_get
 .text          0x000000000001d958      0x6f8 ./Application/external_peripherals/source/accel_lis3dh.o
                0x000000000001dd14                accel_lis3dh_dropdetect_init
                0x000000000001e008                accel_lis3dh_enable
 .text          0x000000000001e050      0x5b4 ./Application/drivers/source/pwm.o
                0x000000000001e30c                set_pwm_wave
                0x000000000001e350                pwm_init
                0x000000000001e414                start_pwm
                0x000000000001e430                stop_pwm
 .text          0x000000000001e604      0x284 ./Application/drivers/source/spi_bang.o
                0x000000000001e6dc                setup_spi1
                0x000000000001e7fc                spi1_mode3_BE_tx_rx
                0x000000000001e82c                spi1_mode3_BE_tx
                0x000000000001e85c                spi1_mode3_BE_rx
 .text          0x000000000001e888     0x1a8c ./Application/main.o
                0x000000000001edb8                app_error_handler
                0x000000000001ede0                assert_nrf_callback
                0x000000000001ee2c                ADC_IRQHandler
                0x00000000000202ac                main
 .text          0x0000000000020314       0x9c /Users/gregpace/Desktop/CMPE_FP/gcc-arm-none-eabi-4_8-2014q2/bin/../lib/gcc/arm-none-eabi/4.8.4/armv6-m/libgcc.a(_udivsi3.o)
                0x0000000000020314                __udivsi3
                0x0000000000020314                __aeabi_uidiv
                0x000000000002039c                __aeabi_uidivmod
 .text          0x00000000000203b0       0xc0 /Users/gregpace/Desktop/CMPE_FP/gcc-arm-none-eabi-4_8-2014q2/bin/../lib/gcc/arm-none-eabi/4.8.4/armv6-m/libgcc.a(_divsi3.o)
                0x00000000000203b0                __aeabi_idiv
                0x00000000000203b0                __divsi3
                0x000000000002045c                __aeabi_idivmod
 .text          0x0000000000020470        0x4 /Users/gregpace/Desktop/CMPE_FP/gcc-arm-none-eabi-4_8-2014q2/bin/../lib/gcc/arm-none-eabi/4.8.4/armv6-m/libgcc.a(_dvmd_tls.o)
                0x0000000000020470                __aeabi_ldiv0
                0x0000000000020470                __aeabi_idiv0
 .text          0x0000000000020474        0x0 /Users/gregpace/Desktop/CMPE_FP/gcc-arm-none-eabi-4_8-2014q2/bin/../lib/gcc/arm-none-eabi/4.8.4/../../../../arm-none-eabi/lib/armv6-m/libg.a(lib_a-exit.o)
 .text.exit     0x0000000000020474       0x20 /Users/gregpace/Desktop/CMPE_FP/gcc-arm-none-eabi-4_8-2014q2/bin/../lib/gcc/arm-none-eabi/4.8.4/../../../../arm-none-eabi/lib/armv6-m/libg.a(lib_a-exit.o)
                0x0000000000020474                exit
 .text          0x0000000000020494        0x0 /Users/gregpace/Desktop/CMPE_FP/gcc-arm-none-eabi-4_8-2014q2/bin/../lib/gcc/arm-none-eabi/4.8.4/../../../../arm-none-eabi/lib/armv6-m/libg.a(lib_a-impure.o)
 .text          0x0000000000020494        0x0 /Users/gregpace/Desktop/CMPE_FP/gcc-arm-none-eabi-4_8-2014q2/bin/../lib/gcc/arm-none-eabi/4.8.4/../../../../arm-none-eabi/lib/armv6-m/libg.a(lib_a-init.o)
 .text.__libc_init_array
                0x0000000000020494       0x48 /Users/gregpace/Desktop/CMPE_FP/gcc-arm-none-eabi-4_8-2014q2/bin/../lib/gcc/arm-none-eabi/4.8.4/../../../../arm-none-eabi/lib/armv6-m/libg.a(lib_a-init.o)
                0x0000000000020494                __libc_init_array
 .text          0x00000000000204dc        0x0 /Users/gregpace/Desktop/CMPE_FP/gcc-arm-none-eabi-4_8-2014q2/bin/../lib/gcc/arm-none-eabi/4.8.4/../../../../arm-none-eabi/lib/armv6-m/libg.a(lib_a-memcmp.o)
 .text.memcmp   0x00000000000204dc       0x4c /Users/gregpace/Desktop/CMPE_FP/gcc-arm-none-eabi-4_8-2014q2/bin/../lib/gcc/arm-none-eabi/4.8.4/../../../../arm-none-eabi/lib/armv6-m/libg.a(lib_a-memcmp.o)
                0x00000000000204dc                memcmp
 .text          0x0000000000020528        0x0 /Users/gregpace/Desktop/CMPE_FP/gcc-arm-none-eabi-4_8-2014q2/bin/../lib/gcc/arm-none-eabi/4.8.4/../../../../arm-none-eabi/lib/armv6-m/libg.a(lib_a-memcpy-stub.o)
 .text.memcpy   0x0000000000020528       0x84 /Users/gregpace/Desktop/CMPE_FP/gcc-arm-none-eabi-4_8-2014q2/bin/../lib/gcc/arm-none-eabi/4.8.4/../../../../arm-none-eabi/lib/armv6-m/libg.a(lib_a-memcpy-stub.o)
                0x0000000000020528                memcpy
 .text          0x00000000000205ac        0x0 /Users/gregpace/Desktop/CMPE_FP/gcc-arm-none-eabi-4_8-2014q2/bin/../lib/gcc/arm-none-eabi/4.8.4/../../../../arm-none-eabi/lib/armv6-m/libg.a(lib_a-memset.o)
 .text.memset   0x00000000000205ac       0x9c /Users/gregpace/Desktop/CMPE_FP/gcc-arm-none-eabi-4_8-2014q2/bin/../lib/gcc/arm-none-eabi/4.8.4/../../../../arm-none-eabi/lib/armv6-m/libg.a(lib_a-memset.o)
                0x00000000000205ac                memset
 .text          0x0000000000020648        0x0 /Users/gregpace/Desktop/CMPE_FP/gcc-arm-none-eabi-4_8-2014q2/bin/../lib/gcc/arm-none-eabi/4.8.4/../../../../arm-none-eabi/lib/armv6-m/libg.a(lib_a-strlen.o)
 .text.strlen   0x0000000000020648       0x10 /Users/gregpace/Desktop/CMPE_FP/gcc-arm-none-eabi-4_8-2014q2/bin/../lib/gcc/arm-none-eabi/4.8.4/../../../../arm-none-eabi/lib/armv6-m/libg.a(lib_a-strlen.o)
                0x0000000000020648                strlen
 .text          0x0000000000020658        0x0 /Users/gregpace/Desktop/CMPE_FP/gcc-arm-none-eabi-4_8-2014q2/bin/../lib/gcc/arm-none-eabi/4.8.4/../../../../arm-none-eabi/lib/armv6-m/libg.a(lib_a-strncpy.o)
 .text.strncpy  0x0000000000020658       0x74 /Users/gregpace/Desktop/CMPE_FP/gcc-arm-none-eabi-4_8-2014q2/bin/../lib/gcc/arm-none-eabi/4.8.4/../../../../arm-none-eabi/lib/armv6-m/libg.a(lib_a-strncpy.o)
                0x0000000000020658                strncpy
 .text          0x00000000000206cc        0x0 /Users/gregpace/Desktop/CMPE_FP/gcc-arm-none-eabi-4_8-2014q2/bin/../lib/gcc/arm-none-eabi/4.8.4/../../../../arm-none-eabi/lib/armv6-m/libg.a(lib_a-__call_atexit.o)
 .text.startup.register_fini
                0x00000000000206cc       0x18 /Users/gregpace/Desktop/CMPE_FP/gcc-arm-none-eabi-4_8-2014q2/bin/../lib/gcc/arm-none-eabi/4.8.4/../../../../arm-none-eabi/lib/armv6-m/libg.a(lib_a-__call_atexit.o)
 .text.__call_exitprocs
                0x00000000000206e4      0x118 /Users/gregpace/Desktop/CMPE_FP/gcc-arm-none-eabi-4_8-2014q2/bin/../lib/gcc/arm-none-eabi/4.8.4/../../../../arm-none-eabi/lib/armv6-m/libg.a(lib_a-__call_atexit.o)
                0x00000000000206e4                __call_exitprocs
 .text          0x00000000000207fc        0x0 /Users/gregpace/Desktop/CMPE_FP/gcc-arm-none-eabi-4_8-2014q2/bin/../lib/gcc/arm-none-eabi/4.8.4/../../../../arm-none-eabi/lib/armv6-m/libg.a(lib_a-atexit.o)
 .text.atexit   0x00000000000207fc       0x10 /Users/gregpace/Desktop/CMPE_FP/gcc-arm-none-eabi-4_8-2014q2/bin/../lib/gcc/arm-none-eabi/4.8.4/../../../../arm-none-eabi/lib/armv6-m/libg.a(lib_a-atexit.o)
                0x00000000000207fc                atexit
 .text          0x000000000002080c        0x0 /Users/gregpace/Desktop/CMPE_FP/gcc-arm-none-eabi-4_8-2014q2/bin/../lib/gcc/arm-none-eabi/4.8.4/../../../../arm-none-eabi/lib/armv6-m/libg.a(lib_a-fini.o)
 .text.__libc_fini_array
                0x000000000002080c       0x30 /Users/gregpace/Desktop/CMPE_FP/gcc-arm-none-eabi-4_8-2014q2/bin/../lib/gcc/arm-none-eabi/4.8.4/../../../../arm-none-eabi/lib/armv6-m/libg.a(lib_a-fini.o)
                0x000000000002080c                __libc_fini_array
 .text          0x000000000002083c        0x0 /Users/gregpace/Desktop/CMPE_FP/gcc-arm-none-eabi-4_8-2014q2/bin/../lib/gcc/arm-none-eabi/4.8.4/../../../../arm-none-eabi/lib/armv6-m/libg.a(lib_a-__atexit.o)
 .text.__register_exitproc
                0x000000000002083c       0xc0 /Users/gregpace/Desktop/CMPE_FP/gcc-arm-none-eabi-4_8-2014q2/bin/../lib/gcc/arm-none-eabi/4.8.4/../../../../arm-none-eabi/lib/armv6-m/libg.a(lib_a-__atexit.o)
                0x000000000002083c                __register_exitproc
 .text          0x00000000000208fc        0x0 /Users/gregpace/Desktop/CMPE_FP/gcc-arm-none-eabi-4_8-2014q2/bin/../lib/gcc/arm-none-eabi/4.8.4/armv6-m/crtend.o
 .text          0x00000000000208fc        0x0 /Users/gregpace/Desktop/CMPE_FP/gcc-arm-none-eabi-4_8-2014q2/bin/../lib/gcc/arm-none-eabi/4.8.4/armv6-m/crtn.o
 .text          0x00000000000208fc        0x0 /Users/gregpace/Desktop/CMPE_FP/gcc-arm-none-eabi-4_8-2014q2/bin/../lib/gcc/arm-none-eabi/4.8.4/../../../../arm-none-eabi/lib/armv6-m/libnosys.a(_exit.o)
 .text._exit    0x00000000000208fc        0x4 /Users/gregpace/Desktop/CMPE_FP/gcc-arm-none-eabi-4_8-2014q2/bin/../lib/gcc/arm-none-eabi/4.8.4/../../../../arm-none-eabi/lib/armv6-m/libnosys.a(_exit.o)
                0x00000000000208fc                _exit
 *(.init)
 .init          0x0000000000020900        0x4 /Users/gregpace/Desktop/CMPE_FP/gcc-arm-none-eabi-4_8-2014q2/bin/../lib/gcc/arm-none-eabi/4.8.4/armv6-m/crti.o
                0x0000000000020900                _init
 .init          0x0000000000020904        0x8 /Users/gregpace/Desktop/CMPE_FP/gcc-arm-none-eabi-4_8-2014q2/bin/../lib/gcc/arm-none-eabi/4.8.4/armv6-m/crtn.o
 *(.fini)
 .fini          0x000000000002090c        0x4 /Users/gregpace/Desktop/CMPE_FP/gcc-arm-none-eabi-4_8-2014q2/bin/../lib/gcc/arm-none-eabi/4.8.4/armv6-m/crti.o
                0x000000000002090c                _fini
 .fini          0x0000000000020910        0x8 /Users/gregpace/Desktop/CMPE_FP/gcc-arm-none-eabi-4_8-2014q2/bin/../lib/gcc/arm-none-eabi/4.8.4/armv6-m/crtn.o
 *crtbegin.o(.ctors)
 *crtbegin?.o(.ctors)
 *(EXCLUDE_FILE(*crtend.o *crtend?.o) .ctors)
 *(SORT(.ctors.*))
 *(.ctors)
 *crtbegin.o(.dtors)
 *crtbegin?.o(.dtors)
 *(EXCLUDE_FILE(*crtend.o *crtend?.o) .dtors)
 *(SORT(.dtors.*))
 *(.dtors)
 *(.rodata*)
 .rodata        0x0000000000020918       0x68 ./Source/sd_common/softdevice_handler.o
 .rodata        0x0000000000020980       0x6c ./Source/ble/ble_services/ble_srv_common.o
 .rodata        0x00000000000209ec      0x10c ./Source/ble/ble_bondmngr.o
 .rodata        0x0000000000020af8       0x28 ./Source/ble/ble_dtm.o
 .rodata        0x0000000000020b20       0x60 ./Source/app_common/app_button.o
 .rodata        0x0000000000020b80       0x60 ./Source/app_common/app_timer.o
 .rodata        0x0000000000020be0       0x1c ./Source/app_common/pstorage.o
 .rodata        0x0000000000020bfc       0x84 ./Application/external_peripherals/source/accel_lis3dh.o
 .rodata        0x0000000000020c80       0x30 ./Application/main.o
 .rodata.str1.4
                0x0000000000020cb0        0x4 /Users/gregpace/Desktop/CMPE_FP/gcc-arm-none-eabi-4_8-2014q2/bin/../lib/gcc/arm-none-eabi/4.8.4/../../../../arm-none-eabi/lib/armv6-m/libg.a(lib_a-impure.o)
 .rodata._global_impure_ptr
                0x0000000000020cb4        0x4 /Users/gregpace/Desktop/CMPE_FP/gcc-arm-none-eabi-4_8-2014q2/bin/../lib/gcc/arm-none-eabi/4.8.4/../../../../arm-none-eabi/lib/armv6-m/libg.a(lib_a-impure.o)
                0x0000000000020cb4                _global_impure_ptr
 *(.eh_frame*)
 .eh_frame      0x0000000000020cb8        0x0 /Users/gregpace/Desktop/CMPE_FP/gcc-arm-none-eabi-4_8-2014q2/bin/../lib/gcc/arm-none-eabi/4.8.4/armv6-m/crtbegin.o
 .eh_frame      0x0000000000020cb8        0x4 /Users/gregpace/Desktop/CMPE_FP/gcc-arm-none-eabi-4_8-2014q2/bin/../lib/gcc/arm-none-eabi/4.8.4/armv6-m/crtend.o

.glue_7         0x0000000000020cbc        0x0
 .glue_7        0x0000000000000000        0x0 linker stubs

.glue_7t        0x0000000000020cbc        0x0
 .glue_7t       0x0000000000000000        0x0 linker stubs

.vfp11_veneer   0x0000000000020cbc        0x0
 .vfp11_veneer  0x0000000000000000        0x0 linker stubs

.v4_bx          0x0000000000020cbc        0x0
 .v4_bx         0x0000000000000000        0x0 linker stubs

.iplt           0x0000000000020cbc        0x0
 .iplt          0x0000000000000000        0x0 /Users/gregpace/Desktop/CMPE_FP/gcc-arm-none-eabi-4_8-2014q2/bin/../lib/gcc/arm-none-eabi/4.8.4/armv6-m/crtbegin.o

.ARM.extab      0x0000000000020cbc        0x0
 *(.ARM.extab* .gnu.linkonce.armextab.*)
 .ARM.extab     0x0000000000020cbc        0x0 /Users/gregpace/Desktop/CMPE_FP/gcc-arm-none-eabi-4_8-2014q2/bin/../lib/gcc/arm-none-eabi/4.8.4/../../../../arm-none-eabi/lib/armv6-m/crt0.o
 .ARM.extab     0x0000000000020cbc        0x0 ./_build/startup/gcc_startup_nrf51.o
                0x0000000000020cbc                __exidx_start = .

.ARM.exidx      0x0000000000020cbc        0x8
 *(.ARM.exidx* .gnu.linkonce.armexidx.*)
 .ARM.exidx     0x0000000000020cbc        0x8 /Users/gregpace/Desktop/CMPE_FP/gcc-arm-none-eabi-4_8-2014q2/bin/../lib/gcc/arm-none-eabi/4.8.4/../../../../arm-none-eabi/lib/armv6-m/crt0.o
 .ARM.exidx     0x0000000000020cc4        0x0 ./_build/startup/gcc_startup_nrf51.o
                                          0x8 (size before relaxing)
                0x0000000000020cc4                __exidx_end = .
                0x0000000000020cc4                __etext = .

.rel.dyn        0x0000000000020cc4        0x0
 .rel.iplt      0x0000000000000000        0x0 /Users/gregpace/Desktop/CMPE_FP/gcc-arm-none-eabi-4_8-2014q2/bin/../lib/gcc/arm-none-eabi/4.8.4/armv6-m/crtbegin.o

.data           0x0000000020002000      0x48c load address 0x0000000000020cc4
                0x0000000020002000                __data_start__ = .
 *(vtable)
 *(.data*)
 .data          0x0000000020002000        0x0 /Users/gregpace/Desktop/CMPE_FP/gcc-arm-none-eabi-4_8-2014q2/bin/../lib/gcc/arm-none-eabi/4.8.4/armv6-m/crti.o
 .data          0x0000000020002000        0x4 /Users/gregpace/Desktop/CMPE_FP/gcc-arm-none-eabi-4_8-2014q2/bin/../lib/gcc/arm-none-eabi/4.8.4/armv6-m/crtbegin.o
                0x0000000020002000                __dso_handle
 .data          0x0000000020002004        0x0 /Users/gregpace/Desktop/CMPE_FP/gcc-arm-none-eabi-4_8-2014q2/bin/../lib/gcc/arm-none-eabi/4.8.4/../../../../arm-none-eabi/lib/armv6-m/crt0.o
 .data          0x0000000020002004        0x0 ./_build/startup/gcc_startup_nrf51.o
 .data          0x0000000020002004        0x4 ./_build/startup/system_nrf51.o
                0x0000000020002004                SystemCoreClock
 .data          0x0000000020002008        0x0 ./Source/sd_common/softdevice_handler.o
 .data          0x0000000020002008        0x0 ./Source/ble/ble_services/ble_bas.o
 .data          0x0000000020002008        0x0 ./Source/ble/ble_services/ble_ias.o
 .data          0x0000000020002008        0x0 ./Source/ble/ble_services/ble_ias_c.o
 .data          0x0000000020002008        0x0 ./Source/ble/ble_services/ble_lls.o
 .data          0x0000000020002008        0x0 ./Source/ble/ble_services/ble_srv_common.o
 .data          0x0000000020002008        0x0 ./Source/ble/ble_services/ble_tps.o
 .data          0x0000000020002008        0x0 ./Source/ble/ble_advdata.o
 .data          0x0000000020002008        0x0 ./Source/ble/ble_advdata_parser.o
 .data          0x0000000020002008        0x0 ./Source/ble/ble_bondmngr.o
 .data          0x0000000020002008        0x0 ./Source/ble/ble_conn_params.o
 .data          0x0000000020002008        0x0 ./Source/ble/ble_debug_assert_handler.o
 .data          0x0000000020002008       0x28 ./Source/ble/ble_dtm.o
 .data          0x0000000020002030        0x0 ./Source/ble/ble_error_log.o
 .data          0x0000000020002030        0x0 ./Source/ble/ble_flash.o
 .data          0x0000000020002030        0x0 ./Source/ble/ble_racp.o
 .data          0x0000000020002030        0x0 ./Source/ble/ble_radio_notification.o
 .data          0x0000000020002030        0x0 ./Source/ble/ble_sensorsim.o
 .data          0x0000000020002030        0x0 ./Source/app_common/app_button.o
 .data          0x0000000020002030        0x0 ./Source/app_common/app_gpiote.o
 .data          0x0000000020002030        0x0 ./Source/app_common/app_timer.o
 .data          0x0000000020002030        0x0 ./Source/app_common/crc16.o
 .data          0x0000000020002030        0x0 ./Source/app_common/pstorage.o
 .data          0x0000000020002030        0x0 ./Application/external_peripherals/source/accel_lis3dh.o
 .data          0x0000000020002030        0x6 ./Application/drivers/source/pwm.o
 .data          0x0000000020002036        0x0 ./Application/drivers/source/spi_bang.o
 *fill*         0x0000000020002036        0x2 
 .data          0x0000000020002038       0x18 ./Application/main.o
 .data          0x0000000020002050        0x0 /Users/gregpace/Desktop/CMPE_FP/gcc-arm-none-eabi-4_8-2014q2/bin/../lib/gcc/arm-none-eabi/4.8.4/armv6-m/libgcc.a(_udivsi3.o)
 .data          0x0000000020002050        0x0 /Users/gregpace/Desktop/CMPE_FP/gcc-arm-none-eabi-4_8-2014q2/bin/../lib/gcc/arm-none-eabi/4.8.4/armv6-m/libgcc.a(_divsi3.o)
 .data          0x0000000020002050        0x0 /Users/gregpace/Desktop/CMPE_FP/gcc-arm-none-eabi-4_8-2014q2/bin/../lib/gcc/arm-none-eabi/4.8.4/armv6-m/libgcc.a(_dvmd_tls.o)
 .data          0x0000000020002050        0x0 /Users/gregpace/Desktop/CMPE_FP/gcc-arm-none-eabi-4_8-2014q2/bin/../lib/gcc/arm-none-eabi/4.8.4/../../../../arm-none-eabi/lib/armv6-m/libg.a(lib_a-exit.o)
 .data          0x0000000020002050        0x0 /Users/gregpace/Desktop/CMPE_FP/gcc-arm-none-eabi-4_8-2014q2/bin/../lib/gcc/arm-none-eabi/4.8.4/../../../../arm-none-eabi/lib/armv6-m/libg.a(lib_a-impure.o)
 .data.impure_data
                0x0000000020002050      0x428 /Users/gregpace/Desktop/CMPE_FP/gcc-arm-none-eabi-4_8-2014q2/bin/../lib/gcc/arm-none-eabi/4.8.4/../../../../arm-none-eabi/lib/armv6-m/libg.a(lib_a-impure.o)
 .data._impure_ptr
                0x0000000020002478        0x4 /Users/gregpace/Desktop/CMPE_FP/gcc-arm-none-eabi-4_8-2014q2/bin/../lib/gcc/arm-none-eabi/4.8.4/../../../../arm-none-eabi/lib/armv6-m/libg.a(lib_a-impure.o)
                0x0000000020002478                _impure_ptr
 .data          0x000000002000247c        0x0 /Users/gregpace/Desktop/CMPE_FP/gcc-arm-none-eabi-4_8-2014q2/bin/../lib/gcc/arm-none-eabi/4.8.4/../../../../arm-none-eabi/lib/armv6-m/libg.a(lib_a-init.o)
 .data          0x000000002000247c        0x0 /Users/gregpace/Desktop/CMPE_FP/gcc-arm-none-eabi-4_8-2014q2/bin/../lib/gcc/arm-none-eabi/4.8.4/../../../../arm-none-eabi/lib/armv6-m/libg.a(lib_a-memcmp.o)
 .data          0x000000002000247c        0x0 /Users/gregpace/Desktop/CMPE_FP/gcc-arm-none-eabi-4_8-2014q2/bin/../lib/gcc/arm-none-eabi/4.8.4/../../../../arm-none-eabi/lib/armv6-m/libg.a(lib_a-memcpy-stub.o)
 .data          0x000000002000247c        0x0 /Users/gregpace/Desktop/CMPE_FP/gcc-arm-none-eabi-4_8-2014q2/bin/../lib/gcc/arm-none-eabi/4.8.4/../../../../arm-none-eabi/lib/armv6-m/libg.a(lib_a-memset.o)
 .data          0x000000002000247c        0x0 /Users/gregpace/Desktop/CMPE_FP/gcc-arm-none-eabi-4_8-2014q2/bin/../lib/gcc/arm-none-eabi/4.8.4/../../../../arm-none-eabi/lib/armv6-m/libg.a(lib_a-strlen.o)
 .data          0x000000002000247c        0x0 /Users/gregpace/Desktop/CMPE_FP/gcc-arm-none-eabi-4_8-2014q2/bin/../lib/gcc/arm-none-eabi/4.8.4/../../../../arm-none-eabi/lib/armv6-m/libg.a(lib_a-strncpy.o)
 .data          0x000000002000247c        0x0 /Users/gregpace/Desktop/CMPE_FP/gcc-arm-none-eabi-4_8-2014q2/bin/../lib/gcc/arm-none-eabi/4.8.4/../../../../arm-none-eabi/lib/armv6-m/libg.a(lib_a-__call_atexit.o)
 .data          0x000000002000247c        0x0 /Users/gregpace/Desktop/CMPE_FP/gcc-arm-none-eabi-4_8-2014q2/bin/../lib/gcc/arm-none-eabi/4.8.4/../../../../arm-none-eabi/lib/armv6-m/libg.a(lib_a-atexit.o)
 .data          0x000000002000247c        0x0 /Users/gregpace/Desktop/CMPE_FP/gcc-arm-none-eabi-4_8-2014q2/bin/../lib/gcc/arm-none-eabi/4.8.4/../../../../arm-none-eabi/lib/armv6-m/libg.a(lib_a-fini.o)
 .data          0x000000002000247c        0x0 /Users/gregpace/Desktop/CMPE_FP/gcc-arm-none-eabi-4_8-2014q2/bin/../lib/gcc/arm-none-eabi/4.8.4/../../../../arm-none-eabi/lib/armv6-m/libg.a(lib_a-__atexit.o)
 .data          0x000000002000247c        0x0 /Users/gregpace/Desktop/CMPE_FP/gcc-arm-none-eabi-4_8-2014q2/bin/../lib/gcc/arm-none-eabi/4.8.4/armv6-m/crtend.o
 .data          0x000000002000247c        0x0 /Users/gregpace/Desktop/CMPE_FP/gcc-arm-none-eabi-4_8-2014q2/bin/../lib/gcc/arm-none-eabi/4.8.4/armv6-m/crtn.o
 .data          0x000000002000247c        0x0 /Users/gregpace/Desktop/CMPE_FP/gcc-arm-none-eabi-4_8-2014q2/bin/../lib/gcc/arm-none-eabi/4.8.4/../../../../arm-none-eabi/lib/armv6-m/libnosys.a(_exit.o)
                0x000000002000247c                . = ALIGN (0x4)
                0x000000002000247c                PROVIDE (__preinit_array_start, .)
 *(.preinit_array)
                0x000000002000247c                PROVIDE (__preinit_array_end, .)
                0x000000002000247c                . = ALIGN (0x4)
                0x000000002000247c                PROVIDE (__init_array_start, .)
 *(SORT(.init_array.*))
 .init_array.00000
                0x000000002000247c        0x4 /Users/gregpace/Desktop/CMPE_FP/gcc-arm-none-eabi-4_8-2014q2/bin/../lib/gcc/arm-none-eabi/4.8.4/../../../../arm-none-eabi/lib/armv6-m/libg.a(lib_a-__call_atexit.o)
 *(.init_array)
 .init_array    0x0000000020002480        0x4 /Users/gregpace/Desktop/CMPE_FP/gcc-arm-none-eabi-4_8-2014q2/bin/../lib/gcc/arm-none-eabi/4.8.4/armv6-m/crtbegin.o
                0x0000000020002484                PROVIDE (__init_array_end, .)
                0x0000000020002484                . = ALIGN (0x4)
                0x0000000020002484                PROVIDE (__fini_array_start, .)
 *(SORT(.fini_array.*))
 *(.fini_array)
 .fini_array    0x0000000020002484        0x4 /Users/gregpace/Desktop/CMPE_FP/gcc-arm-none-eabi-4_8-2014q2/bin/../lib/gcc/arm-none-eabi/4.8.4/armv6-m/crtbegin.o
                0x0000000020002488                PROVIDE (__fini_array_end, .)
 *(.jcr)
 .jcr           0x0000000020002488        0x0 /Users/gregpace/Desktop/CMPE_FP/gcc-arm-none-eabi-4_8-2014q2/bin/../lib/gcc/arm-none-eabi/4.8.4/armv6-m/crtbegin.o
 .jcr           0x0000000020002488        0x4 /Users/gregpace/Desktop/CMPE_FP/gcc-arm-none-eabi-4_8-2014q2/bin/../lib/gcc/arm-none-eabi/4.8.4/armv6-m/crtend.o
                0x000000002000248c                . = ALIGN (0x4)
                0x000000002000248c                __data_end__ = .

.igot.plt       0x000000002000248c        0x0 load address 0x0000000000021150
 .igot.plt      0x0000000000000000        0x0 /Users/gregpace/Desktop/CMPE_FP/gcc-arm-none-eabi-4_8-2014q2/bin/../lib/gcc/arm-none-eabi/4.8.4/armv6-m/crtbegin.o

.bss            0x000000002000248c      0xe44 load address 0x0000000000021150
                0x000000002000248c                . = ALIGN (0x4)
                0x000000002000248c                __bss_start__ = .
 *(.bss*)
 .bss           0x000000002000248c        0x0 /Users/gregpace/Desktop/CMPE_FP/gcc-arm-none-eabi-4_8-2014q2/bin/../lib/gcc/arm-none-eabi/4.8.4/armv6-m/crti.o
 .bss           0x000000002000248c       0x1c /Users/gregpace/Desktop/CMPE_FP/gcc-arm-none-eabi-4_8-2014q2/bin/../lib/gcc/arm-none-eabi/4.8.4/armv6-m/crtbegin.o
 .bss           0x00000000200024a8        0x0 /Users/gregpace/Desktop/CMPE_FP/gcc-arm-none-eabi-4_8-2014q2/bin/../lib/gcc/arm-none-eabi/4.8.4/../../../../arm-none-eabi/lib/armv6-m/crt0.o
 .bss           0x00000000200024a8        0x0 ./_build/startup/gcc_startup_nrf51.o
 .bss           0x00000000200024a8        0x0 ./_build/startup/system_nrf51.o
 .bss           0x00000000200024a8       0x14 ./Source/sd_common/softdevice_handler.o
 .bss           0x00000000200024bc        0x0 ./Source/ble/ble_services/ble_bas.o
 .bss           0x00000000200024bc        0x0 ./Source/ble/ble_services/ble_ias.o
 .bss           0x00000000200024bc        0x4 ./Source/ble/ble_services/ble_ias_c.o
 .bss           0x00000000200024c0        0x0 ./Source/ble/ble_services/ble_lls.o
 .bss           0x00000000200024c0        0x0 ./Source/ble/ble_services/ble_srv_common.o
 .bss           0x00000000200024c0        0x0 ./Source/ble/ble_services/ble_tps.o
 .bss           0x00000000200024c0        0x0 ./Source/ble/ble_advdata.o
 .bss           0x00000000200024c0        0x0 ./Source/ble/ble_advdata_parser.o
 .bss           0x00000000200024c0      0x438 ./Source/ble/ble_bondmngr.o
 .bss           0x00000000200028f8       0x38 ./Source/ble/ble_conn_params.o
 .bss           0x0000000020002930       0x88 ./Source/ble/ble_debug_assert_handler.o
 .bss           0x00000000200029b8       0x48 ./Source/ble/ble_dtm.o
 .bss           0x0000000020002a00      0x188 ./Source/ble/ble_error_log.o
 .bss           0x0000000020002b88        0x1 ./Source/ble/ble_flash.o
 .bss           0x0000000020002b89        0x0 ./Source/ble/ble_racp.o
 *fill*         0x0000000020002b89        0x3 
 .bss           0x0000000020002b8c        0x8 ./Source/ble/ble_radio_notification.o
 .bss           0x0000000020002b94        0x0 ./Source/ble/ble_sensorsim.o
 .bss           0x0000000020002b94       0x20 ./Source/app_common/app_button.o
 .bss           0x0000000020002bb4       0x10 ./Source/app_common/app_gpiote.o
 .bss           0x0000000020002bc4       0x28 ./Source/app_common/app_timer.o
 .bss           0x0000000020002bec        0x0 ./Source/app_common/crc16.o
 .bss           0x0000000020002bec      0x288 ./Source/app_common/pstorage.o
 .bss           0x0000000020002e74       0x1c ./Application/external_peripherals/source/accel_lis3dh.o
 .bss           0x0000000020002e90        0x2 ./Application/drivers/source/pwm.o
 *fill*         0x0000000020002e92        0x2 
 .bss           0x0000000020002e94        0x4 ./Application/drivers/source/spi_bang.o
 .bss           0x0000000020002e98      0x434 ./Application/main.o
 .bss           0x00000000200032cc        0x0 /Users/gregpace/Desktop/CMPE_FP/gcc-arm-none-eabi-4_8-2014q2/bin/../lib/gcc/arm-none-eabi/4.8.4/armv6-m/libgcc.a(_udivsi3.o)
 .bss           0x00000000200032cc        0x0 /Users/gregpace/Desktop/CMPE_FP/gcc-arm-none-eabi-4_8-2014q2/bin/../lib/gcc/arm-none-eabi/4.8.4/armv6-m/libgcc.a(_divsi3.o)
 .bss           0x00000000200032cc        0x0 /Users/gregpace/Desktop/CMPE_FP/gcc-arm-none-eabi-4_8-2014q2/bin/../lib/gcc/arm-none-eabi/4.8.4/armv6-m/libgcc.a(_dvmd_tls.o)
 .bss           0x00000000200032cc        0x0 /Users/gregpace/Desktop/CMPE_FP/gcc-arm-none-eabi-4_8-2014q2/bin/../lib/gcc/arm-none-eabi/4.8.4/../../../../arm-none-eabi/lib/armv6-m/libg.a(lib_a-exit.o)
 .bss           0x00000000200032cc        0x0 /Users/gregpace/Desktop/CMPE_FP/gcc-arm-none-eabi-4_8-2014q2/bin/../lib/gcc/arm-none-eabi/4.8.4/../../../../arm-none-eabi/lib/armv6-m/libg.a(lib_a-impure.o)
 .bss           0x00000000200032cc        0x0 /Users/gregpace/Desktop/CMPE_FP/gcc-arm-none-eabi-4_8-2014q2/bin/../lib/gcc/arm-none-eabi/4.8.4/../../../../arm-none-eabi/lib/armv6-m/libg.a(lib_a-init.o)
 .bss           0x00000000200032cc        0x0 /Users/gregpace/Desktop/CMPE_FP/gcc-arm-none-eabi-4_8-2014q2/bin/../lib/gcc/arm-none-eabi/4.8.4/../../../../arm-none-eabi/lib/armv6-m/libg.a(lib_a-memcmp.o)
 .bss           0x00000000200032cc        0x0 /Users/gregpace/Desktop/CMPE_FP/gcc-arm-none-eabi-4_8-2014q2/bin/../lib/gcc/arm-none-eabi/4.8.4/../../../../arm-none-eabi/lib/armv6-m/libg.a(lib_a-memcpy-stub.o)
 .bss           0x00000000200032cc        0x0 /Users/gregpace/Desktop/CMPE_FP/gcc-arm-none-eabi-4_8-2014q2/bin/../lib/gcc/arm-none-eabi/4.8.4/../../../../arm-none-eabi/lib/armv6-m/libg.a(lib_a-memset.o)
 .bss           0x00000000200032cc        0x0 /Users/gregpace/Desktop/CMPE_FP/gcc-arm-none-eabi-4_8-2014q2/bin/../lib/gcc/arm-none-eabi/4.8.4/../../../../arm-none-eabi/lib/armv6-m/libg.a(lib_a-strlen.o)
 .bss           0x00000000200032cc        0x0 /Users/gregpace/Desktop/CMPE_FP/gcc-arm-none-eabi-4_8-2014q2/bin/../lib/gcc/arm-none-eabi/4.8.4/../../../../arm-none-eabi/lib/armv6-m/libg.a(lib_a-strncpy.o)
 .bss           0x00000000200032cc        0x0 /Users/gregpace/Desktop/CMPE_FP/gcc-arm-none-eabi-4_8-2014q2/bin/../lib/gcc/arm-none-eabi/4.8.4/../../../../arm-none-eabi/lib/armv6-m/libg.a(lib_a-__call_atexit.o)
 .bss           0x00000000200032cc        0x0 /Users/gregpace/Desktop/CMPE_FP/gcc-arm-none-eabi-4_8-2014q2/bin/../lib/gcc/arm-none-eabi/4.8.4/../../../../arm-none-eabi/lib/armv6-m/libg.a(lib_a-atexit.o)
 .bss           0x00000000200032cc        0x0 /Users/gregpace/Desktop/CMPE_FP/gcc-arm-none-eabi-4_8-2014q2/bin/../lib/gcc/arm-none-eabi/4.8.4/../../../../arm-none-eabi/lib/armv6-m/libg.a(lib_a-fini.o)
 .bss           0x00000000200032cc        0x0 /Users/gregpace/Desktop/CMPE_FP/gcc-arm-none-eabi-4_8-2014q2/bin/../lib/gcc/arm-none-eabi/4.8.4/../../../../arm-none-eabi/lib/armv6-m/libg.a(lib_a-__atexit.o)
 .bss           0x00000000200032cc        0x0 /Users/gregpace/Desktop/CMPE_FP/gcc-arm-none-eabi-4_8-2014q2/bin/../lib/gcc/arm-none-eabi/4.8.4/armv6-m/crtend.o
 .bss           0x00000000200032cc        0x0 /Users/gregpace/Desktop/CMPE_FP/gcc-arm-none-eabi-4_8-2014q2/bin/../lib/gcc/arm-none-eabi/4.8.4/armv6-m/crtn.o
 .bss           0x00000000200032cc        0x0 /Users/gregpace/Desktop/CMPE_FP/gcc-arm-none-eabi-4_8-2014q2/bin/../lib/gcc/arm-none-eabi/4.8.4/../../../../arm-none-eabi/lib/armv6-m/libnosys.a(_exit.o)
 *(COMMON)
 COMMON         0x00000000200032cc        0x1 ./Application/drivers/source/pwm.o
                0x00000000200032cc                pwm_pin
                0x00000000200032d0                . = ALIGN (0x4)
 *fill*         0x00000000200032cd        0x3 
                0x00000000200032d0                __bss_end__ = .

.heap           0x00000000200032d0      0x400
                0x00000000200032d0                __end__ = .
                0x00000000200032d0                end = __end__
 *(.heap*)
 .heap          0x00000000200032d0      0x400 ./_build/startup/gcc_startup_nrf51.o
                0x00000000200032d0                __HeapBase
                0x00000000200036d0                __HeapLimit = .

.stack_dummy    0x00000000200032d0      0x800
 *(.stack*)
 .stack         0x00000000200032d0      0x800 ./_build/startup/gcc_startup_nrf51.o
                0x0000000020004000                __StackTop = (ORIGIN (RAM) + 0x2000)
                0x0000000020003800                __StackLimit = (__StackTop - SIZEOF (.stack_dummy))
                0x0000000020004000                PROVIDE (__stack, __StackTop)
                0x0000000000000001                ASSERT ((__StackLimit >= __HeapLimit), region RAM overflowed with stack)
OUTPUT(proxime.elf elf32-littlearm)

.ARM.attributes
                0x0000000000000000       0x28
 .ARM.attributes
                0x0000000000000000       0x1e /Users/gregpace/Desktop/CMPE_FP/gcc-arm-none-eabi-4_8-2014q2/bin/../lib/gcc/arm-none-eabi/4.8.4/armv6-m/crti.o
 .ARM.attributes
                0x000000000000001e       0x2c /Users/gregpace/Desktop/CMPE_FP/gcc-arm-none-eabi-4_8-2014q2/bin/../lib/gcc/arm-none-eabi/4.8.4/armv6-m/crtbegin.o
 .ARM.attributes
                0x000000000000004a       0x1b /Users/gregpace/Desktop/CMPE_FP/gcc-arm-none-eabi-4_8-2014q2/bin/../lib/gcc/arm-none-eabi/4.8.4/../../../../arm-none-eabi/lib/armv6-m/crt0.o
 .ARM.attributes
                0x0000000000000065       0x1b ./_build/startup/gcc_startup_nrf51.o
 .ARM.attributes
                0x0000000000000080       0x31 ./_build/startup/system_nrf51.o
 .ARM.attributes
                0x00000000000000b1       0x31 ./Source/sd_common/softdevice_handler.o
 .ARM.attributes
                0x00000000000000e2       0x31 ./Source/ble/ble_services/ble_bas.o
 .ARM.attributes
                0x0000000000000113       0x31 ./Source/ble/ble_services/ble_ias.o
 .ARM.attributes
                0x0000000000000144       0x31 ./Source/ble/ble_services/ble_ias_c.o
 .ARM.attributes
                0x0000000000000175       0x31 ./Source/ble/ble_services/ble_lls.o
 .ARM.attributes
                0x00000000000001a6       0x31 ./Source/ble/ble_services/ble_srv_common.o
 .ARM.attributes
                0x00000000000001d7       0x31 ./Source/ble/ble_services/ble_tps.o
 .ARM.attributes
                0x0000000000000208       0x31 ./Source/ble/ble_advdata.o
 .ARM.attributes
                0x0000000000000239       0x31 ./Source/ble/ble_advdata_parser.o
 .ARM.attributes
                0x000000000000026a       0x31 ./Source/ble/ble_bondmngr.o
 .ARM.attributes
                0x000000000000029b       0x31 ./Source/ble/ble_conn_params.o
 .ARM.attributes
                0x00000000000002cc       0x31 ./Source/ble/ble_debug_assert_handler.o
 .ARM.attributes
                0x00000000000002fd       0x31 ./Source/ble/ble_dtm.o
 .ARM.attributes
                0x000000000000032e       0x31 ./Source/ble/ble_error_log.o
 .ARM.attributes
                0x000000000000035f       0x31 ./Source/ble/ble_flash.o
 .ARM.attributes
                0x0000000000000390       0x31 ./Source/ble/ble_racp.o
 .ARM.attributes
                0x00000000000003c1       0x31 ./Source/ble/ble_radio_notification.o
 .ARM.attributes
                0x00000000000003f2       0x31 ./Source/ble/ble_sensorsim.o
 .ARM.attributes
                0x0000000000000423       0x31 ./Source/app_common/app_button.o
 .ARM.attributes
                0x0000000000000454       0x31 ./Source/app_common/app_gpiote.o
 .ARM.attributes
                0x0000000000000485       0x31 ./Source/app_common/app_timer.o
 .ARM.attributes
                0x00000000000004b6       0x31 ./Source/app_common/crc16.o
 .ARM.attributes
                0x00000000000004e7       0x31 ./Source/app_common/pstorage.o
 .ARM.attributes
                0x0000000000000518       0x31 ./Application/external_peripherals/source/accel_lis3dh.o
 .ARM.attributes
                0x0000000000000549       0x31 ./Application/drivers/source/pwm.o
 .ARM.attributes
                0x000000000000057a       0x31 ./Application/drivers/source/spi_bang.o
 .ARM.attributes
                0x00000000000005ab       0x31 ./Application/main.o
 .ARM.attributes
                0x00000000000005dc       0x1e /Users/gregpace/Desktop/CMPE_FP/gcc-arm-none-eabi-4_8-2014q2/bin/../lib/gcc/arm-none-eabi/4.8.4/armv6-m/libgcc.a(_udivsi3.o)
 .ARM.attributes
                0x00000000000005fa       0x1e /Users/gregpace/Desktop/CMPE_FP/gcc-arm-none-eabi-4_8-2014q2/bin/../lib/gcc/arm-none-eabi/4.8.4/armv6-m/libgcc.a(_divsi3.o)
 .ARM.attributes
                0x0000000000000618       0x1e /Users/gregpace/Desktop/CMPE_FP/gcc-arm-none-eabi-4_8-2014q2/bin/../lib/gcc/arm-none-eabi/4.8.4/armv6-m/libgcc.a(_dvmd_tls.o)
 .ARM.attributes
                0x0000000000000636       0x2c /Users/gregpace/Desktop/CMPE_FP/gcc-arm-none-eabi-4_8-2014q2/bin/../lib/gcc/arm-none-eabi/4.8.4/../../../../arm-none-eabi/lib/armv6-m/libg.a(lib_a-exit.o)
 .ARM.attributes
                0x0000000000000662       0x2c /Users/gregpace/Desktop/CMPE_FP/gcc-arm-none-eabi-4_8-2014q2/bin/../lib/gcc/arm-none-eabi/4.8.4/../../../../arm-none-eabi/lib/armv6-m/libg.a(lib_a-impure.o)
 .ARM.attributes
                0x000000000000068e       0x2c /Users/gregpace/Desktop/CMPE_FP/gcc-arm-none-eabi-4_8-2014q2/bin/../lib/gcc/arm-none-eabi/4.8.4/../../../../arm-none-eabi/lib/armv6-m/libg.a(lib_a-init.o)
 .ARM.attributes
                0x00000000000006ba       0x2c /Users/gregpace/Desktop/CMPE_FP/gcc-arm-none-eabi-4_8-2014q2/bin/../lib/gcc/arm-none-eabi/4.8.4/../../../../arm-none-eabi/lib/armv6-m/libg.a(lib_a-memcmp.o)
 .ARM.attributes
                0x00000000000006e6       0x2c /Users/gregpace/Desktop/CMPE_FP/gcc-arm-none-eabi-4_8-2014q2/bin/../lib/gcc/arm-none-eabi/4.8.4/../../../../arm-none-eabi/lib/armv6-m/libg.a(lib_a-memcpy-stub.o)
 .ARM.attributes
                0x0000000000000712       0x2c /Users/gregpace/Desktop/CMPE_FP/gcc-arm-none-eabi-4_8-2014q2/bin/../lib/gcc/arm-none-eabi/4.8.4/../../../../arm-none-eabi/lib/armv6-m/libg.a(lib_a-memset.o)
 .ARM.attributes
                0x000000000000073e       0x2c /Users/gregpace/Desktop/CMPE_FP/gcc-arm-none-eabi-4_8-2014q2/bin/../lib/gcc/arm-none-eabi/4.8.4/../../../../arm-none-eabi/lib/armv6-m/libg.a(lib_a-strlen.o)
 .ARM.attributes
                0x000000000000076a       0x2c /Users/gregpace/Desktop/CMPE_FP/gcc-arm-none-eabi-4_8-2014q2/bin/../lib/gcc/arm-none-eabi/4.8.4/../../../../arm-none-eabi/lib/armv6-m/libg.a(lib_a-strncpy.o)
 .ARM.attributes
                0x0000000000000796       0x2c /Users/gregpace/Desktop/CMPE_FP/gcc-arm-none-eabi-4_8-2014q2/bin/../lib/gcc/arm-none-eabi/4.8.4/../../../../arm-none-eabi/lib/armv6-m/libg.a(lib_a-__call_atexit.o)
 .ARM.attributes
                0x00000000000007c2       0x2c /Users/gregpace/Desktop/CMPE_FP/gcc-arm-none-eabi-4_8-2014q2/bin/../lib/gcc/arm-none-eabi/4.8.4/../../../../arm-none-eabi/lib/armv6-m/libg.a(lib_a-atexit.o)
 .ARM.attributes
                0x00000000000007ee       0x2c /Users/gregpace/Desktop/CMPE_FP/gcc-arm-none-eabi-4_8-2014q2/bin/../lib/gcc/arm-none-eabi/4.8.4/../../../../arm-none-eabi/lib/armv6-m/libg.a(lib_a-fini.o)
 .ARM.attributes
                0x000000000000081a       0x2c /Users/gregpace/Desktop/CMPE_FP/gcc-arm-none-eabi-4_8-2014q2/bin/../lib/gcc/arm-none-eabi/4.8.4/../../../../arm-none-eabi/lib/armv6-m/libg.a(lib_a-__atexit.o)
 .ARM.attributes
                0x0000000000000846       0x2c /Users/gregpace/Desktop/CMPE_FP/gcc-arm-none-eabi-4_8-2014q2/bin/../lib/gcc/arm-none-eabi/4.8.4/armv6-m/crtend.o
 .ARM.attributes
                0x0000000000000872       0x1e /Users/gregpace/Desktop/CMPE_FP/gcc-arm-none-eabi-4_8-2014q2/bin/../lib/gcc/arm-none-eabi/4.8.4/armv6-m/crtn.o
 .ARM.attributes
                0x0000000000000890       0x2c /Users/gregpace/Desktop/CMPE_FP/gcc-arm-none-eabi-4_8-2014q2/bin/../lib/gcc/arm-none-eabi/4.8.4/../../../../arm-none-eabi/lib/armv6-m/libnosys.a(_exit.o)

.comment        0x0000000000000000       0x70
 .comment       0x0000000000000000       0x70 ./_build/startup/system_nrf51.o
                                         0x71 (size before relaxing)
 .comment       0x0000000000000000       0x71 ./Source/sd_common/softdevice_handler.o
 .comment       0x0000000000000000       0x71 ./Source/ble/ble_services/ble_bas.o
 .comment       0x0000000000000000       0x71 ./Source/ble/ble_services/ble_ias.o
 .comment       0x0000000000000000       0x71 ./Source/ble/ble_services/ble_ias_c.o
 .comment       0x0000000000000000       0x71 ./Source/ble/ble_services/ble_lls.o
 .comment       0x0000000000000000       0x71 ./Source/ble/ble_services/ble_srv_common.o
 .comment       0x0000000000000000       0x71 ./Source/ble/ble_services/ble_tps.o
 .comment       0x0000000000000000       0x71 ./Source/ble/ble_advdata.o
 .comment       0x0000000000000000       0x71 ./Source/ble/ble_advdata_parser.o
 .comment       0x0000000000000000       0x71 ./Source/ble/ble_bondmngr.o
 .comment       0x0000000000000000       0x71 ./Source/ble/ble_conn_params.o
 .comment       0x0000000000000000       0x71 ./Source/ble/ble_debug_assert_handler.o
 .comment       0x0000000000000000       0x71 ./Source/ble/ble_dtm.o
 .comment       0x0000000000000000       0x71 ./Source/ble/ble_error_log.o
 .comment       0x0000000000000000       0x71 ./Source/ble/ble_flash.o
 .comment       0x0000000000000000       0x71 ./Source/ble/ble_racp.o
 .comment       0x0000000000000000       0x71 ./Source/ble/ble_radio_notification.o
 .comment       0x0000000000000000       0x71 ./Source/ble/ble_sensorsim.o
 .comment       0x0000000000000000       0x71 ./Source/app_common/app_button.o
 .comment       0x0000000000000000       0x71 ./Source/app_common/app_gpiote.o
 .comment       0x0000000000000000       0x71 ./Source/app_common/app_timer.o
 .comment       0x0000000000000000       0x71 ./Source/app_common/crc16.o
 .comment       0x0000000000000000       0x71 ./Source/app_common/pstorage.o
 .comment       0x0000000000000000       0x71 ./Application/external_peripherals/source/accel_lis3dh.o
 .comment       0x0000000000000000       0x71 ./Application/drivers/source/pwm.o
 .comment       0x0000000000000000       0x71 ./Application/drivers/source/spi_bang.o
 .comment       0x0000000000000000       0x71 ./Application/main.o

.debug_line     0x0000000000000000     0xc5eb
 .debug_line    0x0000000000000000       0x7f ./_build/startup/gcc_startup_nrf51.o
 .debug_line    0x000000000000007f      0x372 ./_build/startup/system_nrf51.o
 .debug_line    0x00000000000003f1      0x836 ./Source/sd_common/softdevice_handler.o
 .debug_line    0x0000000000000c27      0x7eb ./Source/ble/ble_services/ble_bas.o
 .debug_line    0x0000000000001412      0x717 ./Source/ble/ble_services/ble_ias.o
 .debug_line    0x0000000000001b29      0x765 ./Source/ble/ble_services/ble_ias_c.o
 .debug_line    0x000000000000228e      0x739 ./Source/ble/ble_services/ble_lls.o
 .debug_line    0x00000000000029c7      0x632 ./Source/ble/ble_services/ble_srv_common.o
 .debug_line    0x0000000000002ff9      0x6fd ./Source/ble/ble_services/ble_tps.o
 .debug_line    0x00000000000036f6      0x88b ./Source/ble/ble_advdata.o
 .debug_line    0x0000000000003f81      0x6e7 ./Source/ble/ble_advdata_parser.o
 .debug_line    0x0000000000004668      0xbcc ./Source/ble/ble_bondmngr.o
 .debug_line    0x0000000000005234      0x7eb ./Source/ble/ble_conn_params.o
 .debug_line    0x0000000000005a1f      0x4cf ./Source/ble/ble_debug_assert_handler.o
 .debug_line    0x0000000000005eee      0x5ec ./Source/ble/ble_dtm.o
 .debug_line    0x00000000000064da      0x60b ./Source/ble/ble_error_log.o
 .debug_line    0x0000000000006ae5      0x792 ./Source/ble/ble_flash.o
 .debug_line    0x0000000000007277      0x4fd ./Source/ble/ble_racp.o
 .debug_line    0x0000000000007774      0x569 ./Source/ble/ble_radio_notification.o
 .debug_line    0x0000000000007cdd      0x2a8 ./Source/ble/ble_sensorsim.o
 .debug_line    0x0000000000007f85      0x65a ./Source/app_common/app_button.o
 .debug_line    0x00000000000085df      0x62e ./Source/app_common/app_gpiote.o
 .debug_line    0x0000000000008c0d      0x8a4 ./Source/app_common/app_timer.o
 .debug_line    0x00000000000094b1      0x36a ./Source/app_common/crc16.o
 .debug_line    0x000000000000981b      0xaef ./Source/app_common/pstorage.o
 .debug_line    0x000000000000a30a      0x7c8 ./Application/external_peripherals/source/accel_lis3dh.o
 .debug_line    0x000000000000aad2      0x737 ./Application/drivers/source/pwm.o
 .debug_line    0x000000000000b209      0x3b9 ./Application/drivers/source/spi_bang.o
 .debug_line    0x000000000000b5c2     0x1029 ./Application/main.o

.debug_info     0x0000000000000000    0x2989b
 .debug_info    0x0000000000000000       0x86 ./_build/startup/gcc_startup_nrf51.o
 .debug_info    0x0000000000000086      0x1e7 ./_build/startup/system_nrf51.o
 .debug_info    0x000000000000026d     0x31e4 ./Source/sd_common/softdevice_handler.o
 .debug_info    0x0000000000003451     0x2863 ./Source/ble/ble_services/ble_bas.o
 .debug_info    0x0000000000005cb4     0x25f7 ./Source/ble/ble_services/ble_ias.o
 .debug_info    0x00000000000082ab     0x27b8 ./Source/ble/ble_services/ble_ias_c.o
 .debug_info    0x000000000000aa63     0x271b ./Source/ble/ble_services/ble_lls.o
 .debug_info    0x000000000000d17e      0xa32 ./Source/ble/ble_services/ble_srv_common.o
 .debug_info    0x000000000000dbb0     0x18c9 ./Source/ble/ble_services/ble_tps.o
 .debug_info    0x000000000000f479     0x1ec9 ./Source/ble/ble_advdata.o
 .debug_info    0x0000000000011342     0x17c5 ./Source/ble/ble_advdata_parser.o
 .debug_info    0x0000000000012b07     0x31b5 ./Source/ble/ble_bondmngr.o
 .debug_info    0x0000000000015cbc     0x2857 ./Source/ble/ble_conn_params.o
 .debug_info    0x0000000000018513      0x171 ./Source/ble/ble_debug_assert_handler.o
 .debug_info    0x0000000000018684     0x120c ./Source/ble/ble_dtm.o
 .debug_info    0x0000000000019890      0x218 ./Source/ble/ble_error_log.o
 .debug_info    0x0000000000019aa8     0x1221 ./Source/ble/ble_flash.o
 .debug_info    0x000000000001acc9     0x1817 ./Source/ble/ble_racp.o
 .debug_info    0x000000000001c4e0      0xc88 ./Source/ble/ble_radio_notification.o
 .debug_info    0x000000000001d168      0x16e ./Source/ble/ble_sensorsim.o
 .debug_info    0x000000000001d2d6      0x597 ./Source/app_common/app_button.o
 .debug_info    0x000000000001d86d      0x9c3 ./Source/app_common/app_gpiote.o
 .debug_info    0x000000000001e230     0x1d23 ./Source/app_common/app_timer.o
 .debug_info    0x000000000001ff53      0x134 ./Source/app_common/crc16.o
 .debug_info    0x0000000000020087     0x1727 ./Source/app_common/pstorage.o
 .debug_info    0x00000000000217ae     0x15bb ./Application/external_peripherals/source/accel_lis3dh.o
 .debug_info    0x0000000000022d69     0x1792 ./Application/drivers/source/pwm.o
 .debug_info    0x00000000000244fb      0x463 ./Application/drivers/source/spi_bang.o
 .debug_info    0x000000000002495e     0x4f3d ./Application/main.o

.debug_abbrev   0x0000000000000000     0x3e1b
 .debug_abbrev  0x0000000000000000       0x14 ./_build/startup/gcc_startup_nrf51.o
 .debug_abbrev  0x0000000000000014       0xf4 ./_build/startup/system_nrf51.o
 .debug_abbrev  0x0000000000000108      0x304 ./Source/sd_common/softdevice_handler.o
 .debug_abbrev  0x000000000000040c      0x313 ./Source/ble/ble_services/ble_bas.o
 .debug_abbrev  0x000000000000071f      0x2ce ./Source/ble/ble_services/ble_ias.o
 .debug_abbrev  0x00000000000009ed      0x2ea ./Source/ble/ble_services/ble_ias_c.o
 .debug_abbrev  0x0000000000000cd7      0x2dd ./Source/ble/ble_services/ble_lls.o
 .debug_abbrev  0x0000000000000fb4      0x1ac ./Source/ble/ble_services/ble_srv_common.o
 .debug_abbrev  0x0000000000001160      0x224 ./Source/ble/ble_services/ble_tps.o
 .debug_abbrev  0x0000000000001384      0x25f ./Source/ble/ble_advdata.o
 .debug_abbrev  0x00000000000015e3      0x1ea ./Source/ble/ble_advdata_parser.o
 .debug_abbrev  0x00000000000017cd      0x336 ./Source/ble/ble_bondmngr.o
 .debug_abbrev  0x0000000000001b03      0x33d ./Source/ble/ble_conn_params.o
 .debug_abbrev  0x0000000000001e40       0xb7 ./Source/ble/ble_debug_assert_handler.o
 .debug_abbrev  0x0000000000001ef7      0x296 ./Source/ble/ble_dtm.o
 .debug_abbrev  0x000000000000218d      0x102 ./Source/ble/ble_error_log.o
 .debug_abbrev  0x000000000000228f      0x246 ./Source/ble/ble_flash.o
 .debug_abbrev  0x00000000000024d5      0x1fb ./Source/ble/ble_racp.o
 .debug_abbrev  0x00000000000026d0      0x173 ./Source/ble/ble_radio_notification.o
 .debug_abbrev  0x0000000000002843       0xb6 ./Source/ble/ble_sensorsim.o
 .debug_abbrev  0x00000000000028f9      0x1a3 ./Source/app_common/app_button.o
 .debug_abbrev  0x0000000000002a9c      0x24d ./Source/app_common/app_gpiote.o
 .debug_abbrev  0x0000000000002ce9      0x35c ./Source/app_common/app_timer.o
 .debug_abbrev  0x0000000000003045       0x84 ./Source/app_common/crc16.o
 .debug_abbrev  0x00000000000030c9      0x287 ./Source/app_common/pstorage.o
 .debug_abbrev  0x0000000000003350      0x271 ./Application/external_peripherals/source/accel_lis3dh.o
 .debug_abbrev  0x00000000000035c1      0x29f ./Application/drivers/source/pwm.o
 .debug_abbrev  0x0000000000003860      0x1d5 ./Application/drivers/source/spi_bang.o
 .debug_abbrev  0x0000000000003a35      0x3e6 ./Application/main.o

.debug_aranges  0x0000000000000000      0x3a0
 .debug_aranges
                0x0000000000000000       0x20 ./_build/startup/gcc_startup_nrf51.o
 .debug_aranges
                0x0000000000000020       0x20 ./_build/startup/system_nrf51.o
 .debug_aranges
                0x0000000000000040       0x20 ./Source/sd_common/softdevice_handler.o
 .debug_aranges
                0x0000000000000060       0x20 ./Source/ble/ble_services/ble_bas.o
 .debug_aranges
                0x0000000000000080       0x20 ./Source/ble/ble_services/ble_ias.o
 .debug_aranges
                0x00000000000000a0       0x20 ./Source/ble/ble_services/ble_ias_c.o
 .debug_aranges
                0x00000000000000c0       0x20 ./Source/ble/ble_services/ble_lls.o
 .debug_aranges
                0x00000000000000e0       0x20 ./Source/ble/ble_services/ble_srv_common.o
 .debug_aranges
                0x0000000000000100       0x20 ./Source/ble/ble_services/ble_tps.o
 .debug_aranges
                0x0000000000000120       0x20 ./Source/ble/ble_advdata.o
 .debug_aranges
                0x0000000000000140       0x20 ./Source/ble/ble_advdata_parser.o
 .debug_aranges
                0x0000000000000160       0x20 ./Source/ble/ble_bondmngr.o
 .debug_aranges
                0x0000000000000180       0x20 ./Source/ble/ble_conn_params.o
 .debug_aranges
                0x00000000000001a0       0x20 ./Source/ble/ble_debug_assert_handler.o
 .debug_aranges
                0x00000000000001c0       0x20 ./Source/ble/ble_dtm.o
 .debug_aranges
                0x00000000000001e0       0x20 ./Source/ble/ble_error_log.o
 .debug_aranges
                0x0000000000000200       0x20 ./Source/ble/ble_flash.o
 .debug_aranges
                0x0000000000000220       0x20 ./Source/ble/ble_racp.o
 .debug_aranges
                0x0000000000000240       0x20 ./Source/ble/ble_radio_notification.o
 .debug_aranges
                0x0000000000000260       0x20 ./Source/ble/ble_sensorsim.o
 .debug_aranges
                0x0000000000000280       0x20 ./Source/app_common/app_button.o
 .debug_aranges
                0x00000000000002a0       0x20 ./Source/app_common/app_gpiote.o
 .debug_aranges
                0x00000000000002c0       0x20 ./Source/app_common/app_timer.o
 .debug_aranges
                0x00000000000002e0       0x20 ./Source/app_common/crc16.o
 .debug_aranges
                0x0000000000000300       0x20 ./Source/app_common/pstorage.o
 .debug_aranges
                0x0000000000000320       0x20 ./Application/external_peripherals/source/accel_lis3dh.o
 .debug_aranges
                0x0000000000000340       0x20 ./Application/drivers/source/pwm.o
 .debug_aranges
                0x0000000000000360       0x20 ./Application/drivers/source/spi_bang.o
 .debug_aranges
                0x0000000000000380       0x20 ./Application/main.o

.debug_macro    0x0000000000000000     0xede5
 .debug_macro   0x0000000000000000       0xbe ./_build/startup/system_nrf51.o
 .debug_macro   0x00000000000000be      0x838 ./_build/startup/system_nrf51.o
 .debug_macro   0x00000000000008f6       0x16 ./_build/startup/system_nrf51.o
 .debug_macro   0x000000000000090c       0x44 ./_build/startup/system_nrf51.o
 .debug_macro   0x0000000000000950      0x209 ./_build/startup/system_nrf51.o
 .debug_macro   0x0000000000000b59       0x22 ./_build/startup/system_nrf51.o
 .debug_macro   0x0000000000000b7b       0x22 ./_build/startup/system_nrf51.o
 .debug_macro   0x0000000000000b9d       0x3a ./_build/startup/system_nrf51.o
 .debug_macro   0x0000000000000bd7       0x1f ./_build/startup/system_nrf51.o
 .debug_macro   0x0000000000000bf6      0x242 ./_build/startup/system_nrf51.o
 .debug_macro   0x0000000000000e38      0x1d2 ./_build/startup/system_nrf51.o
 .debug_macro   0x000000000000100a     0x74a3 ./_build/startup/system_nrf51.o
 .debug_macro   0x00000000000084ad      0x963 ./_build/startup/system_nrf51.o
 .debug_macro   0x0000000000008e10       0x10 ./_build/startup/system_nrf51.o
 .debug_macro   0x0000000000008e20      0x259 ./Source/sd_common/softdevice_handler.o
 .debug_macro   0x0000000000009079       0x58 ./Source/sd_common/softdevice_handler.o
 .debug_macro   0x00000000000090d1       0x35 ./Source/sd_common/softdevice_handler.o
 .debug_macro   0x0000000000009106       0xa3 ./Source/sd_common/softdevice_handler.o
 .debug_macro   0x00000000000091a9       0x16 ./Source/sd_common/softdevice_handler.o
 .debug_macro   0x00000000000091bf      0x10e ./Source/sd_common/softdevice_handler.o
 .debug_macro   0x00000000000092cd       0x7f ./Source/sd_common/softdevice_handler.o
 .debug_macro   0x000000000000934c       0x4a ./Source/sd_common/softdevice_handler.o
 .debug_macro   0x0000000000009396       0x52 ./Source/sd_common/softdevice_handler.o
 .debug_macro   0x00000000000093e8       0x16 ./Source/sd_common/softdevice_handler.o
 .debug_macro   0x00000000000093fe       0x43 ./Source/sd_common/softdevice_handler.o
 .debug_macro   0x0000000000009441      0x180 ./Source/sd_common/softdevice_handler.o
 .debug_macro   0x00000000000095c1       0x16 ./Source/sd_common/softdevice_handler.o
 .debug_macro   0x00000000000095d7       0x29 ./Source/sd_common/softdevice_handler.o
 .debug_macro   0x0000000000009600       0x10 ./Source/sd_common/softdevice_handler.o
 .debug_macro   0x0000000000009610      0x20f ./Source/sd_common/softdevice_handler.o
 .debug_macro   0x000000000000981f       0x8e ./Source/sd_common/softdevice_handler.o
 .debug_macro   0x00000000000098ad       0x40 ./Source/sd_common/softdevice_handler.o
 .debug_macro   0x00000000000098ed       0x3a ./Source/sd_common/softdevice_handler.o
 .debug_macro   0x0000000000009927       0x1c ./Source/sd_common/softdevice_handler.o
 .debug_macro   0x0000000000009943       0x16 ./Source/sd_common/softdevice_handler.o
 .debug_macro   0x0000000000009959       0x16 ./Source/sd_common/softdevice_handler.o
 .debug_macro   0x000000000000996f       0x44 ./Source/sd_common/softdevice_handler.o
 .debug_macro   0x00000000000099b3       0x94 ./Source/sd_common/softdevice_handler.o
 .debug_macro   0x0000000000009a47      0x1aa ./Source/sd_common/softdevice_handler.o
 .debug_macro   0x0000000000009bf1      0x2b7 ./Source/sd_common/softdevice_handler.o
 .debug_macro   0x0000000000009ea8       0x34 ./Source/sd_common/softdevice_handler.o
 .debug_macro   0x0000000000009edc       0x22 ./Source/sd_common/softdevice_handler.o
 .debug_macro   0x0000000000009efe      0x1d5 ./Source/sd_common/softdevice_handler.o
 .debug_macro   0x000000000000a0d3       0x16 ./Source/sd_common/softdevice_handler.o
 .debug_macro   0x000000000000a0e9       0xb8 ./Source/sd_common/softdevice_handler.o
 .debug_macro   0x000000000000a1a1       0x1c ./Source/sd_common/softdevice_handler.o
 .debug_macro   0x000000000000a1bd       0x10 ./Source/sd_common/softdevice_handler.o
 .debug_macro   0x000000000000a1cd       0x10 ./Source/sd_common/softdevice_handler.o
 .debug_macro   0x000000000000a1dd       0x16 ./Source/sd_common/softdevice_handler.o
 .debug_macro   0x000000000000a1f3       0xf4 ./Source/sd_common/softdevice_handler.o
 .debug_macro   0x000000000000a2e7       0x10 ./Source/sd_common/softdevice_handler.o
 .debug_macro   0x000000000000a2f7      0x210 ./Source/ble/ble_services/ble_bas.o
 .debug_macro   0x000000000000a507      0x2b1 ./Source/ble/ble_services/ble_bas.o
 .debug_macro   0x000000000000a7b8       0x2e ./Source/ble/ble_services/ble_bas.o
 .debug_macro   0x000000000000a7e6       0x1c ./Source/ble/ble_services/ble_bas.o
 .debug_macro   0x000000000000a802      0x245 ./Source/ble/ble_services/ble_bas.o
 .debug_macro   0x000000000000aa47      0x166 ./Source/ble/ble_services/ble_bas.o
 .debug_macro   0x000000000000abad      0x2a6 ./Source/ble/ble_services/ble_bas.o
 .debug_macro   0x000000000000ae53       0x10 ./Source/ble/ble_services/ble_bas.o
 .debug_macro   0x000000000000ae63       0x35 ./Source/ble/ble_services/ble_bas.o
 .debug_macro   0x000000000000ae98       0x1f ./Source/ble/ble_services/ble_bas.o
 .debug_macro   0x000000000000aeb7      0x203 ./Source/ble/ble_services/ble_ias.o
 .debug_macro   0x000000000000b0ba      0x211 ./Source/ble/ble_services/ble_ias_c.o
 .debug_macro   0x000000000000b2cb       0x10 ./Source/ble/ble_services/ble_ias_c.o
 .debug_macro   0x000000000000b2db      0x20a ./Source/ble/ble_services/ble_lls.o
 .debug_macro   0x000000000000b4e5       0xa6 ./Source/ble/ble_services/ble_lls.o
 .debug_macro   0x000000000000b58b      0x1b5 ./Source/ble/ble_services/ble_srv_common.o
 .debug_macro   0x000000000000b740      0x201 ./Source/ble/ble_services/ble_tps.o
 .debug_macro   0x000000000000b941      0x212 ./Source/ble/ble_advdata.o
 .debug_macro   0x000000000000bb53      0x1ec ./Source/ble/ble_advdata_parser.o
 .debug_macro   0x000000000000bd3f      0x30c ./Source/ble/ble_bondmngr.o
 .debug_macro   0x000000000000c04b       0x46 ./Source/ble/ble_bondmngr.o
 .debug_macro   0x000000000000c091       0x22 ./Source/ble/ble_bondmngr.o
 .debug_macro   0x000000000000c0b3       0x16 ./Source/ble/ble_bondmngr.o
 .debug_macro   0x000000000000c0c9      0x274 ./Source/ble/ble_conn_params.o
 .debug_macro   0x000000000000c33d       0x1c ./Source/ble/ble_conn_params.o
 .debug_macro   0x000000000000c359       0x10 ./Source/ble/ble_conn_params.o
 .debug_macro   0x000000000000c369       0x10 ./Source/ble/ble_conn_params.o
 .debug_macro   0x000000000000c379       0x22 ./Source/ble/ble_conn_params.o
 .debug_macro   0x000000000000c39b       0xbd ./Source/ble/ble_conn_params.o
 .debug_macro   0x000000000000c458       0x16 ./Source/ble/ble_conn_params.o
 .debug_macro   0x000000000000c46e      0x16c ./Source/ble/ble_conn_params.o
 .debug_macro   0x000000000000c5da       0x1c ./Source/ble/ble_conn_params.o
 .debug_macro   0x000000000000c5f6       0x41 ./Source/ble/ble_conn_params.o
 .debug_macro   0x000000000000c637      0x163 ./Source/ble/ble_debug_assert_handler.o
 .debug_macro   0x000000000000c79a       0x22 ./Source/ble/ble_debug_assert_handler.o
 .debug_macro   0x000000000000c7bc       0x16 ./Source/ble/ble_debug_assert_handler.o
 .debug_macro   0x000000000000c7d2      0x1b8 ./Source/ble/ble_dtm.o
 .debug_macro   0x000000000000c98a       0x9a ./Source/ble/ble_dtm.o
 .debug_macro   0x000000000000ca24      0x1ab ./Source/ble/ble_error_log.o
 .debug_macro   0x000000000000cbcf      0x205 ./Source/ble/ble_flash.o
 .debug_macro   0x000000000000cdd4       0x1c ./Source/ble/ble_flash.o
 .debug_macro   0x000000000000cdf0       0x1c ./Source/ble/ble_flash.o
 .debug_macro   0x000000000000ce0c      0x185 ./Source/ble/ble_racp.o
 .debug_macro   0x000000000000cf91       0x9a ./Source/ble/ble_racp.o
 .debug_macro   0x000000000000d02b      0x17e ./Source/ble/ble_radio_notification.o
 .debug_macro   0x000000000000d1a9       0x55 ./Source/ble/ble_sensorsim.o
 .debug_macro   0x000000000000d1fe      0x22b ./Source/app_common/app_button.o
 .debug_macro   0x000000000000d429       0x28 ./Source/app_common/app_button.o
 .debug_macro   0x000000000000d451       0x1c ./Source/app_common/app_button.o
 .debug_macro   0x000000000000d46d      0x1e1 ./Source/app_common/app_gpiote.o
 .debug_macro   0x000000000000d64e      0x274 ./Source/app_common/app_timer.o
 .debug_macro   0x000000000000d8c2       0x16 ./Source/app_common/app_timer.o
 .debug_macro   0x000000000000d8d8       0x97 ./Source/app_common/app_timer.o
 .debug_macro   0x000000000000d96f       0xef ./Source/app_common/app_timer.o
 .debug_macro   0x000000000000da5e      0x114 ./Source/app_common/crc16.o
 .debug_macro   0x000000000000db72      0x266 ./Source/app_common/pstorage.o
 .debug_macro   0x000000000000ddd8       0x40 ./Source/app_common/pstorage.o
 .debug_macro   0x000000000000de18      0x19b ./Application/external_peripherals/source/accel_lis3dh.o
 .debug_macro   0x000000000000dfb3      0x520 ./Application/external_peripherals/source/accel_lis3dh.o
 .debug_macro   0x000000000000e4d3       0x5e ./Application/external_peripherals/source/accel_lis3dh.o
 .debug_macro   0x000000000000e531       0x76 ./Application/external_peripherals/source/accel_lis3dh.o
 .debug_macro   0x000000000000e5a7      0x19f ./Application/drivers/source/pwm.o
 .debug_macro   0x000000000000e746       0x58 ./Application/drivers/source/pwm.o
 .debug_macro   0x000000000000e79e       0xa3 ./Application/drivers/source/spi_bang.o
 .debug_macro   0x000000000000e841      0x52e ./Application/main.o
 .debug_macro   0x000000000000ed6f       0x16 ./Application/main.o
 .debug_macro   0x000000000000ed85       0x10 ./Application/main.o
 .debug_macro   0x000000000000ed95       0x22 ./Application/main.o
 .debug_macro   0x000000000000edb7       0x2e ./Application/main.o

.debug_str      0x0000000000000000    0x42de8
 .debug_str     0x0000000000000000    0x2e9ec ./_build/startup/system_nrf51.o
                                      0x2eb5d (size before relaxing)
 .debug_str     0x000000000002e9ec     0x8676 ./Source/sd_common/softdevice_handler.o
                                      0x3422b (size before relaxing)
 .debug_str     0x0000000000037062     0x234c ./Source/ble/ble_services/ble_bas.o
                                       0xd896 (size before relaxing)
 .debug_str     0x00000000000393ae      0x1af ./Source/ble/ble_services/ble_ias.o
                                       0xd2ed (size before relaxing)
 .debug_str     0x000000000003955d      0x391 ./Source/ble/ble_services/ble_ias_c.o
                                       0xd55c (size before relaxing)
 .debug_str     0x00000000000398ee      0x5d9 ./Source/ble/ble_services/ble_lls.o
                                       0xd816 (size before relaxing)
 .debug_str     0x0000000000039ec7       0xe6 ./Source/ble/ble_services/ble_srv_common.o
                                       0xba0b (size before relaxing)
 .debug_str     0x0000000000039fad      0x113 ./Source/ble/ble_services/ble_tps.o
                                       0xc9ca (size before relaxing)
 .debug_str     0x000000000003a0c0      0x496 ./Source/ble/ble_advdata.o
                                       0xd02c (size before relaxing)
 .debug_str     0x000000000003a556       0xbb ./Source/ble/ble_advdata_parser.o
                                       0xba8f (size before relaxing)
 .debug_str     0x000000000003a611      0xf7c ./Source/ble/ble_bondmngr.o
                                      0x38a03 (size before relaxing)
 .debug_str     0x000000000003b58d     0x11e0 ./Source/ble/ble_conn_params.o
                                       0xdf71 (size before relaxing)
 .debug_str     0x000000000003c76d      0x27b ./Source/ble/ble_debug_assert_handler.o
                                       0x70f4 (size before relaxing)
 .debug_str     0x000000000003c9e8      0xc27 ./Source/ble/ble_dtm.o
                                      0x31d95 (size before relaxing)
 .debug_str     0x000000000003d60f      0x103 ./Source/ble/ble_error_log.o
                                      0x2ecbd (size before relaxing)
 .debug_str     0x000000000003d712      0x2a9 ./Source/ble/ble_flash.o
                                      0x332cf (size before relaxing)
 .debug_str     0x000000000003d9bb      0x38b ./Source/ble/ble_racp.o
                                       0x90e3 (size before relaxing)
 .debug_str     0x000000000003dd46      0x1a8 ./Source/ble/ble_radio_notification.o
                                      0x2e667 (size before relaxing)
 .debug_str     0x000000000003deee       0xf3 ./Source/ble/ble_sensorsim.o
                                       0x2f24 (size before relaxing)
 .debug_str     0x000000000003dfe1      0x5cd ./Source/app_common/app_button.o
                                      0x33309 (size before relaxing)
 .debug_str     0x000000000003e5ae      0x2a6 ./Source/app_common/app_gpiote.o
                                      0x32075 (size before relaxing)
 .debug_str     0x000000000003e854      0x892 ./Source/app_common/app_timer.o
                                      0x337f4 (size before relaxing)
 .debug_str     0x000000000003f0e6       0x5a ./Source/app_common/crc16.o
                                       0x4fb1 (size before relaxing)
 .debug_str     0x000000000003f140      0x9bf ./Source/app_common/pstorage.o
                                      0x33d8a (size before relaxing)
 .debug_str     0x000000000003faff     0x2148 ./Application/external_peripherals/source/accel_lis3dh.o
                                      0x32d43 (size before relaxing)
 .debug_str     0x0000000000041c47      0x1cf ./Application/drivers/source/pwm.o
                                      0x3122d (size before relaxing)
 .debug_str     0x0000000000041e16       0xc4 ./Application/drivers/source/spi_bang.o
                                      0x2ba31 (size before relaxing)
 .debug_str     0x0000000000041eda      0xf0e ./Application/main.o
                                      0x3e73c (size before relaxing)

.debug_frame    0x0000000000000000     0x6a9c
 .debug_frame   0x0000000000000000       0x80 ./_build/startup/system_nrf51.o
 .debug_frame   0x0000000000000080      0x780 ./Source/sd_common/softdevice_handler.o
 .debug_frame   0x0000000000000800      0x460 ./Source/ble/ble_services/ble_bas.o
 .debug_frame   0x0000000000000c60      0x3e0 ./Source/ble/ble_services/ble_ias.o
 .debug_frame   0x0000000000001040      0x460 ./Source/ble/ble_services/ble_ias_c.o
 .debug_frame   0x00000000000014a0      0x420 ./Source/ble/ble_services/ble_lls.o
 .debug_frame   0x00000000000018c0      0x1a0 ./Source/ble/ble_services/ble_srv_common.o
 .debug_frame   0x0000000000001a60      0x3a0 ./Source/ble/ble_services/ble_tps.o
 .debug_frame   0x0000000000001e00      0x520 ./Source/ble/ble_advdata.o
 .debug_frame   0x0000000000002320      0x360 ./Source/ble/ble_advdata_parser.o
 .debug_frame   0x0000000000002680      0x73c ./Source/ble/ble_bondmngr.o
 .debug_frame   0x0000000000002dbc      0x4dc ./Source/ble/ble_conn_params.o
 .debug_frame   0x0000000000003298       0x30 ./Source/ble/ble_debug_assert_handler.o
 .debug_frame   0x00000000000032c8      0x1b8 ./Source/ble/ble_dtm.o
 .debug_frame   0x0000000000003480       0x6c ./Source/ble/ble_error_log.o
 .debug_frame   0x00000000000034ec      0x470 ./Source/ble/ble_flash.o
 .debug_frame   0x000000000000395c      0x380 ./Source/ble/ble_racp.o
 .debug_frame   0x0000000000003cdc      0x34c ./Source/ble/ble_radio_notification.o
 .debug_frame   0x0000000000004028       0x50 ./Source/ble/ble_sensorsim.o
 .debug_frame   0x0000000000004078      0x10c ./Source/app_common/app_button.o
 .debug_frame   0x0000000000004184      0x194 ./Source/app_common/app_gpiote.o
 .debug_frame   0x0000000000004318      0x834 ./Source/app_common/app_timer.o
 .debug_frame   0x0000000000004b4c       0x30 ./Source/app_common/crc16.o
 .debug_frame   0x0000000000004b7c      0x534 ./Source/app_common/pstorage.o
 .debug_frame   0x00000000000050b0      0x474 ./Application/external_peripherals/source/accel_lis3dh.o
 .debug_frame   0x0000000000005524      0x4e4 ./Application/drivers/source/pwm.o
 .debug_frame   0x0000000000005a08      0x174 ./Application/drivers/source/spi_bang.o
 .debug_frame   0x0000000000005b7c      0xcb0 ./Application/main.o
 .debug_frame   0x000000000000682c       0x20 /Users/gregpace/Desktop/CMPE_FP/gcc-arm-none-eabi-4_8-2014q2/bin/../lib/gcc/arm-none-eabi/4.8.4/armv6-m/libgcc.a(_udivsi3.o)
 .debug_frame   0x000000000000684c       0x20 /Users/gregpace/Desktop/CMPE_FP/gcc-arm-none-eabi-4_8-2014q2/bin/../lib/gcc/arm-none-eabi/4.8.4/armv6-m/libgcc.a(_divsi3.o)
 .debug_frame   0x000000000000686c       0x28 /Users/gregpace/Desktop/CMPE_FP/gcc-arm-none-eabi-4_8-2014q2/bin/../lib/gcc/arm-none-eabi/4.8.4/../../../../arm-none-eabi/lib/armv6-m/libg.a(lib_a-exit.o)
 .debug_frame   0x0000000000006894       0x2c /Users/gregpace/Desktop/CMPE_FP/gcc-arm-none-eabi-4_8-2014q2/bin/../lib/gcc/arm-none-eabi/4.8.4/../../../../arm-none-eabi/lib/armv6-m/libg.a(lib_a-init.o)
 .debug_frame   0x00000000000068c0       0x2c /Users/gregpace/Desktop/CMPE_FP/gcc-arm-none-eabi-4_8-2014q2/bin/../lib/gcc/arm-none-eabi/4.8.4/../../../../arm-none-eabi/lib/armv6-m/libg.a(lib_a-memcmp.o)
 .debug_frame   0x00000000000068ec       0x30 /Users/gregpace/Desktop/CMPE_FP/gcc-arm-none-eabi-4_8-2014q2/bin/../lib/gcc/arm-none-eabi/4.8.4/../../../../arm-none-eabi/lib/armv6-m/libg.a(lib_a-memcpy-stub.o)
 .debug_frame   0x000000000000691c       0x30 /Users/gregpace/Desktop/CMPE_FP/gcc-arm-none-eabi-4_8-2014q2/bin/../lib/gcc/arm-none-eabi/4.8.4/../../../../arm-none-eabi/lib/armv6-m/libg.a(lib_a-memset.o)
 .debug_frame   0x000000000000694c       0x20 /Users/gregpace/Desktop/CMPE_FP/gcc-arm-none-eabi-4_8-2014q2/bin/../lib/gcc/arm-none-eabi/4.8.4/../../../../arm-none-eabi/lib/armv6-m/libg.a(lib_a-strlen.o)
 .debug_frame   0x000000000000696c       0x30 /Users/gregpace/Desktop/CMPE_FP/gcc-arm-none-eabi-4_8-2014q2/bin/../lib/gcc/arm-none-eabi/4.8.4/../../../../arm-none-eabi/lib/armv6-m/libg.a(lib_a-strncpy.o)
 .debug_frame   0x000000000000699c       0x54 /Users/gregpace/Desktop/CMPE_FP/gcc-arm-none-eabi-4_8-2014q2/bin/../lib/gcc/arm-none-eabi/4.8.4/../../../../arm-none-eabi/lib/armv6-m/libg.a(lib_a-__call_atexit.o)
 .debug_frame   0x00000000000069f0       0x28 /Users/gregpace/Desktop/CMPE_FP/gcc-arm-none-eabi-4_8-2014q2/bin/../lib/gcc/arm-none-eabi/4.8.4/../../../../arm-none-eabi/lib/armv6-m/libg.a(lib_a-atexit.o)
 .debug_frame   0x0000000000006a18       0x2c /Users/gregpace/Desktop/CMPE_FP/gcc-arm-none-eabi-4_8-2014q2/bin/../lib/gcc/arm-none-eabi/4.8.4/../../../../arm-none-eabi/lib/armv6-m/libg.a(lib_a-fini.o)
 .debug_frame   0x0000000000006a44       0x38 /Users/gregpace/Desktop/CMPE_FP/gcc-arm-none-eabi-4_8-2014q2/bin/../lib/gcc/arm-none-eabi/4.8.4/../../../../arm-none-eabi/lib/armv6-m/libg.a(lib_a-__atexit.o)
 .debug_frame   0x0000000000006a7c       0x20 /Users/gregpace/Desktop/CMPE_FP/gcc-arm-none-eabi-4_8-2014q2/bin/../lib/gcc/arm-none-eabi/4.8.4/../../../../arm-none-eabi/lib/armv6-m/libnosys.a(_exit.o)

.debug_ranges   0x0000000000000000       0x48
 .debug_ranges  0x0000000000000000       0x18 ./Source/ble/ble_conn_params.o
 .debug_ranges  0x0000000000000018       0x30 ./Source/app_common/pstorage.o
